:020000040000FA
:10000000FC7F0020E10B0000D10B0000D50B0000AD
:1000100000000000000000000000000000000000E0
:10002000000000000000000000000000D90B0000EC
:100030000000000000000000DD0B0000350D000096
:1000400010B5064C2378002B07D1054B002B02D0AE
:10005000044800E000BF0123237010BD5C000020B5
:1000600000000000381F000008B5084B002B03D02B
:100070000748084900E000BF07480368002B03D089
:10008000064B002B00D0984708BDC046000000007A
:10009000381F000060000020580000200000000011
:1000A000094A0323184003040849506808401843CC
:1000B000074B5060D0694007C00F04D0013B002BB4
:1000C000F8D101204042704700080042FFFFFCFFCA
:1000D00052C3000070B5400008431D4BC0B21D4C18
:1000E0000325668B221C36092E40012E07D1546A47
:1000F000E40AE4022043506200290DD010E0648B32
:1001000024092540022DF2D0013B9A1CE7D10020A2
:100110001CE0013B581CFAD4117EC807F9D511E048
:10012000107E012440080B4920400BD1002BEEDB50
:100130000D7E013B2542F3D04A68C0239B02134346
:100140004B6003E0538B01209B08984370BDC04671
:1001500050C300000008004238B5284A284B5A8096
:100160005A7852B2002AFBDB264B04211A6A264D2C
:100170000A431A622B68012213432B602A68012369
:10018000214C1A42FAD1E2691A42F7D114232360B2
:1001900041001E4801F0F2FC421EE068FF231A40B5
:1001A00098431043E0602368022213432360EA6906
:1001B000154B9107FBD45A8B30218A4310210A43F7
:1001C0005A83EB6901205A07FBD4114B02241A7899
:1001D00002431A700F4B0F22197891431970197846
:1001E000214319700C490C782043087019780A4093
:1001F0001A701A7820210A431A7038BD1440000082
:10020000000C00400004004000080042006CDC02CA
:10021000484400413444004149440041044B022118
:100220001A688A431A60DA699107FCD47047C0469D
:1002300000080042F7B50D1C019234D01B4F00237B
:1002400001213B70FFF746FF00282BD001233B70B4
:10025000174C237E9907FBD5164A174B11780126B8
:1002600019706268AE4212D0144B022013406360D2
:10027000FFF716FF3B785A1C3A70227E9107FCD597
:100280000C4901360A780C49F6B2CA54E9E78023D2
:10029000DB0213436360019A002A04D00320FFF7B6
:1002A000FFFE00E0051C281CFEBDC04678000020B3
:1002B00000080042280800429D000020FFFFFBFFCD
:1002C000024B00221870024B1A7070477A0000200F
:1002D00079000020F8B51E4B051C00211878FFF7A7
:1002E000F9FE002804D10320FFF7DAFE02242CE0F7
:1002F000184A1678331C002B16D01748F11A405CA8
:100300001649174C087017480121077E0F4206D185
:10031000013C002C10D0408B0842F4D00CE0408B04
:10032000800808420ED007E013701C1C002D0CD072
:100330000320FFF7B5FE08E0032013700324FFF746
:10034000AFFE02E0013BDBB2D5E7201CF8BDC046A2
:100350007A000020790000207B000020280800425D
:1003600052C3000000080042034A1378591C117060
:10037000024AD05401207047790000207B00002001
:10038000154A164B1178002909D1154918780978B2
:100390004118C9B21970802012494003C861117810
:1003A0000131C9B211701978F02902D819780929D8
:1003B00009D80B4908784042C0B20870187809780B
:1003C0004118C9B2197012781B789A4203D1802261
:1003D000044B5203DA6170477D00002001000020C9
:1003E000000000200044004110B5041C6B20FFF702
:1003F00067FF201CFFF7B8FF0120FFF76BFF00230A
:10040000984206D101216B200A1CFFF713FF024B13
:100410001B78181C10BDC0469D00002038B5051C77
:100420006B200C1CFFF74CFF281CFFF79DFF201CC6
:10043000FFF79AFF0120FFF74DFF022038BD08B5F6
:100440000520FFF7D1FF0023984205D0CE210140BF
:100450000520FFF7E3FF0123181C08BD10B5041C9D
:100460000020FFF7C1FF78232D4A9843C1B2944280
:1004700042D018D82B4B9C4238D009D82A4B9C42EA
:1004800030D02A4B9C422FD0294B9C4245D13FE093
:10049000284B9C422CD0284B9C422BD0274B9C4273
:1004A0003BD1202333E0264A94422BD00AD8254B57
:1004B0009C4223D0244B9C4222D0244B9C422CD1E2
:1004C000402324E0224A94421ED004D8214B9C426F
:1004D00023D160231BE0204A944217D01F4A944244
:1004E00015D01AE0082312E0102310E018230EE0C4
:1004F00028230CE030230AE0382308E0482306E0F4
:10050000502304E0582302E0682300E070231943DD
:100510000020FFF783FF012000E0002010BDC0464F
:100520005811000018100000780F0000C80F0000DC
:10053000280F0000B810000008110000681000002B
:1005400098120000F811000048120000A8110000E5
:1005500038130000E812000088130000D8130000D0
:1005600010B5041C0020FFF73FFF07239843E1224A
:10057000C1B29200944220D008D8962C18D0FA2309
:100580005B009C4217D0642C22D11CE0114A94429B
:1005900015D005D89623DB009C4219D1042311E025
:1005A000FA22D20094420CD00B4A94420AD00FE0B7
:1005B0000124214307E0022304E0032302E0052392
:1005C00000E0062319430020FFF728FF012000E088
:1005D000002010BDDC050000B80B000070B504ACB5
:1005E000267805AC2578441EA041C401002901D01D
:1005F00040210C43002A01D020221443002B01D0BB
:1006000010231C43002E01D008231C43002D01D0D1
:1006100004231C430220FFF7E7FE0125011C2940AB
:1006200021430220FFF7FAFE281C70BD10B5041C00
:100630000420FFF7D9FE03231840084B9C4204D046
:10064000074B9C4208D1B02100E0982101430420CF
:10065000FFF7E4FE012000E0002010BD10100000B4
:100660007010000008B50120FFF7BEFECF23011C6B
:1006700019400120FFF7D2FE012008BD13B5FFF796
:10068000DEFE002817D0FFF7EDFF0C480024FFF72F
:10069000E5FE0B48FFF764FF211C221C231C00947D
:1006A0000194201CFFF79AFF0648FFF7BFFFFFF7F2
:1006B000B5FD201C01E00120404216BD08110000DC
:1006C000B80B00001010000008B50348FFF744FD08
:1006D000FFF7D4FF08BDC046A086010010B5C3696E
:1006E0009C07FCD403680224A3430360C46901236C
:1006F0001C42FBD10468234303600368DC07FCD47D
:10070000C46901231C42FBD1C469DC401C42F7D1FF
:10071000084B1A430260C3695A07FCD4C0239B02EA
:1007200043608181C3699C07FCD4036802221343A0
:10073000036010BD04000040037EDA07FCD501858C
:1007400070470000027E01235107FBD5428B1A42FD
:1007500007D1428BDA401A4203D1428B92081A42E7
:1007600002D0034B01221A70008DC0B27047C04600
:100770007E00002070B50368041C988B1A1C0821A9
:10078000FF32084226D0802099839872112353703B
:100790004021144B917150715E68134DC0202E4062
:1007A000800506435E605E693540284358610F4806
:1007B00018600F4818615D680E4828408025AD021A
:1007C000284358605868800B80035860002351719B
:1007D000237105E0137ADA0602D5201C00F0E4FA52
:1007E000207970BDA0010020FFFFFF8FA000002036
:1007F00020010020FF3F00F0002303714371044BF0
:10080000016083600B78022213430B707047C0466F
:100810007507000038B5364B2021DA6901200A43FC
:10082000DA61344B06241A7802431A70324B0F22D5
:100830001978914319701978214319702F490C7850
:100840002043087019780A401A701A7860210A4308
:100850001A702B4B2B4A5A805A7852B2002AFBDB73
:10086000294B01211A780A431A709A78D107FCD4CF
:1008700026480268510B1F221140914200D10521E8
:1008800011408C011D8D224929402143198504689E
:10089000A10C0A401F2A00D11D221C8D1F210A40D5
:1008A0008C4322431A8502680721D20D0A408A42EE
:1008B00000D103220A40188D1103164A02400A4350
:1008C0001A8519787F220A401A701A780421124872
:1008D0000A431A7058621A890C218A431A811A89AC
:1008E00001218A431A810021802201F0A0F938BD3C
:1008F00000040040584400413C4400415944004138
:10090000000C0040064000000050004124608000C0
:100910003FF8FFFFFF8FFFFFA0010020F7B5141C79
:100920001F4A5F0101971D1CD319061C5869271C1B
:100930004000400F03301033C74006D00F1C802208
:10094000596812060A435A6009E02F1C7B1E9F411A
:10095000144BBF01FF18381C221C01F05FF90199EC
:100960000F48083542181761131C5269A104920BF5
:10097000890C92030A435A6159690B4A0A405A6129
:100980006B01F3180222DA715979802252420A432C
:100990005A716B01F318DB799A07FAD5201CFEBD5A
:1009A000A001002020010020FF3F00F0F8B51A4E02
:1009B000051C3378141C002B12D1184B184A1A64EA
:1009C0005A6C920B92035A64586C164A02405A644D
:1009D000A2235B00EA5C40200243EA540123337007
:1009E0004827FF37EA5D0123134012D00B4B5A6CA6
:1009F0009204920CA24202D25C6CA404A40C081CC7
:100A0000221C074901F00AF90123EB55002333703A
:100A100000E01C1C201CF8BD7F000020A00100206D
:100A2000E0000020FF3F00F0FF3083792022002902
:100A300000D110221343837170470000084BFF3030
:100A40005A69920B92035A610223037282798023BE
:100A50005B4213438371037A9A07FCD57047C04603
:100A6000A001002080235B421943C9B28172704704
:100A700070B5A02303225B00C254134B134A5C6C75
:100A8000C021144089050C4346255C64FF35402491
:100A900044550F4D30261D6490256D0046555D6B05
:100AA00015402943922559636D0080214155094D18
:100AB0001D63B0256D0044555C6F22405A67B22318
:100AC0005B00C15470BDC046A0010020FFFFFF8F36
:100AD000E000002060010020024B5B785BB2002B3D
:100AE000FADB7047000C0040024BDB68DA06FBD5EE
:100AF0007047C04600080040F8B52A4B1E225968CE
:100B00009143022211435960274B28491E1C9982A8
:100B1000998A0A439A82F3680227234C3B42FAD00F
:100B2000234D0123AB60FFF7D7FF224B6B60FFF72C
:100B3000D3FF8223DB016B80FFF7CEFFA38C8022E3
:100B40009343A384FFF7D0FF1B4BE362FFF7CCFF77
:100B5000A38C1A4A1343A384FFF7C6FFA38C1F4339
:100B6000A784F3681A06FCD50F4BDB685A06F8D544
:100B70000024FFF7B9FFAC60FFF7AEFF104B6B60CE
:100B8000FFF7AAFF0F4B104AC0215A600F4A09060F
:100B9000106A0002000A0143116207229C601A6079
:100BA000F8BDC04600400041000800400C060000AF
:100BB000000C004001050100B805FF7D040A00009B
:100BC0000007030010E000E0E703000000ED00E094
:100BD0000EBEFEE70DBEFEE705BEFEE702BEFEE767
:100BE0000E4A0F4838B5824204D10E4A0E4B93424A
:100BF0000ED10AE00D4C9442F7D00023D118884260
:100C0000F3D9E55804330D60F8E700F011F804E07B
:100C10009342FAD2002102C3FAE7FEE70000002067
:100C20005C000020B00300205C0000203C1F00009E
:100C300038B5344D2B6801331AD0334B2A1D1A6056
:100C4000EAB2002A14D1314B197801231940304BF4
:100C50000AD118682F4A904201D1196008E01A6041
:100C60002D4A013A002AFCD11A602C4B01221A703D
:100C7000FFF742FF62B6FFF727FD284B284C1B7891
:100C8000002B0AD02B6883F308881E4BFF22934366
:100C9000A3601D4B1B681B68184700F09DFD00F00A
:100CA0004FF8204B802252039A601F4B1F4A051CAD
:100CB0005A60216AC0220902090A12060A43226206
:100CC00000229A6007221A60AB68281C9847184BCC
:100CD000002801D001221A701A78002A05D00020BD
:100CE00000F08CFA00F004FBFCE71B78002BEBD142
:100CF00000F0E6FD0028E7D0012000F07FFA00F0C8
:100D0000F7FAFCE700200000200200203804004031
:100D1000FC7F00203581730748E801008000002037
:100D200000ED00E00044004110E000E0E7030000B7
:100D30008100002008B5FFF723FB00F0C3FA08BDCF
:100D400010B5054B054C2360FFF764FD201C21689E
:100D5000FFF752FD201C10BD00500041240200206E
:100D600070B5051CC0B0081C161C0C1C00F067FFF9
:100D700040006A4603230230537010707608012346
:100D8000E218013A11785A00002906D1281C694658
:100D90000023FFF7C3FD40B070BDB342F6DA6846EA
:100DA00081520133ECE70000F7B5BA4A04681378C2
:100DB000B949271CFF37051C102038720B70537877
:100DC000B648B74E037093783380D17833880902E0
:100DD0000B4333801179B34B19805179188809027C
:100DE000084318809079B0490880D27908881202A7
:100DF00002430A8040227A71A84F3A78A64F120225
:100E000038780F1C0243A9488446181C624500D15B
:100E1000C2E020DC802149008A4200D16EE109DC79
:100E2000812A00D192E0822A00D195E0802A00D068
:100E300064E18BE081235B009A4200D1CFE000DACD
:100E400058E1C0239B009A4200D157E1984B9A4247
:100E500000D14FE152E190231B019A4269D015DC89
:100E6000D023DB009A4222D088231B019A4269D00A
:100E7000A023DB009A4200D040E1201CFFF7DEFDFA
:100E80003188286889B2FFF7EDFD3BE1894B9A4232
:100E900000D12FE100DC31E1874B9A4200D11DE106
:100EA000864B9A4200D029E133886B7122E1338866
:100EB0001B0A012B08D10B8812222868934201D803
:100EC0000A8892B27E4911E133881B0A022B08D1AD
:100ED0000B8843222868934201D80A8892B2794944
:100EE00004E133881B0A032B00D007E13388DBB20F
:100EF000012B17D0002B07D0022B00D0FEE00A8870
:100F00002868D2B2704911E0042201A86F4900F0AC
:100F100085FE3B8804222868934201D83A8892B221
:100F200001A9E3E00A8828686949D2B2FFF718FFEF
:100F3000E8E03388201C2B71FFF780FD201CFFF7B1
:100F400097FDDFE0291C01C90122CFE061490023A0
:100F50000B8028680222CAE05E4900220A801888B5
:100F6000502210405C4A10701E880F2030401880BC
:100F70001888032800D9C1E012781B8808335B0168
:100F8000E418A379002A01D09B0600E0DB06DB0F02
:100F90000B8028680222A9E019887F2291434E4ADB
:100FA000C9B2117018880F210140198031880029B9
:100FB00000D0A3E01988002900D19FE019880329F7
:100FC00000D99BE012781B8808335B01E318002AE4
:100FD00002D020225A718DE0102159718AE00288D6
:100FE0007F239A433C4BD2B21A7001880F220A40E9
:100FF00002803288002A00D080E00288002A00D1D6
:101000007CE00288032A00D978E01B78002B1FD0EF
:10101000038808335B01E3189B799A066AD5038835
:10102000202208335B01E3181A71038808335B013F
:10103000E318DB795F065DD50388402208335B0146
:10104000E318DA710388022208335B01E3181EE01B
:10105000038808335B01E3189B79D9064AD50388D6
:10106000102208335B01E3181A71038808335B010F
:10107000E318DB799A063DD50388202208335B010B
:10108000E318DA710388012208335B01E3181A714F
:1010900030E0C046A000002083000020880000202F
:1010A0008A0000208C00002086000020020300003F
:1010B0000103000021200000A121000021220000E6
:1010C0008C1C000004000020741C0000641C000044
:1010D000681C000084000020820000200B88082289
:1010E0002868934201D80A8892B207490023FFF783
:1010F00015FC07E0201CFFF7A1FC03E0201C0121E8
:10110000FFF792FCF7BDC0464800002007B5054B2D
:101110000122019001A91868131CFFF7FFFB0120B1
:101120000EBDC0462402002013B5054B6C460734A3
:101130001868211C0122FFF739FC207816BDC04633
:101140002402002010B5074C201CFFF713FB031CE2
:101150000020834205D022684823FF33D05C01235E
:10116000184010BD2402002010B5054A0C1C031CB9
:10117000191C10680123221CFFF7D0FB201C10BD96
:101180002402002070B5084C061C201C0D1CFFF723
:10119000F1FA0023984205D02068311C2A1CFFF781
:1011A00005FC031C181C70BD24020020F8B50C4C73
:1011B000051C201C0E1CFFF7DDFA0023271C341C25
:1011C00098420AD0002C07D0291C221C3868FFF74F
:1011D000EDFB241A2D18F5E7331C181CF8BDC0468A
:1011E0002402002008B5031C081C111C9847024B60
:1011F00064221A8008BDC04692000020012805D153
:10120000054B064A1A60064B187004E0002802D10C
:10121000044A014B1A60704794020020C01C000071
:10122000940000200C1D000030B50A1C1C4985B03C
:101230000978031C00292AD0042A01D1006804E09F
:10124000022A01D1008800E00078520004A98B181E
:101250000B3B9C1AA3420BD00F210140092902D855
:101260003025294300E0373119700009013BF1E7CF
:1012700001A930230B7078234B700A208B189870CB
:101280000D20D870074B04321B68D86803E005496D
:101290000968C868191CFFF7A5FF05B030BDC04636
:1012A0008E0000209402002072B6EFF30883044AF7
:1012B0001360036883F30888436818477047C04683
:1012C00098020020084B1A88002A03D01A88013A95
:1012D00092B21A80054B1A88002A03D01A88013A64
:1012E00092B21A807047C046920000209000002001
:1012F000F0B591B008A9CC4A0B1C31CA31C351CA10
:1013000051C360CA60C3C94BC9489A687A25520361
:10131000520F92005258C74902609C68A4B26243BF
:101320000C60C54900240A60C44A1460C44C25708E
:10133000C44CC54D2368281C1B69402198470028D0
:1013400002D0C24B64221A80C14B00221860C14BEC
:101350001D60C14BC04DBE4F1A602A683B689A425F
:10136000E6D2BC4B1B681A78FF2A00D114E2232A6C
:1013700000D0EBE1B94E3378002B06D0B14BB84921
:101380001B680222D868FFF72DFFAD4B1B78532B4B
:101390003CD13B682A6893421ED9AE4801322A608C
:1013A0009A1AB04B01681B6801310160AE4E9A4237
:1013B00001D2326000E03360A048326800680490D7
:1013C00000F02CFC336829685A182A60A14A166874
:1013D000F1181160A54A13702B68013B2B609D4BDF
:1013E0001A68013A1A60A14B9E4A1B7811688B4219
:1013F0000AD222689148C91A006892699047002869
:1014000002D0924B64221A80C0468DE1522B0AD141
:101410008A48944A2368006811685B69039098477A
:101420006422934B0DE04F2B05D1844B8D4A1B68F2
:1014300012681A7078E1482B05D1804B894A1B68E5
:1014400012681A8070E1572B05D17C4B854A1B68C6
:1014500012681A6068E16F2B03D1784B012118687C
:1014600007E0682B08D1754B7E481B6802211B885A
:101470000360FFF7D9FE57E1772B06D16F4B794810
:101480001B6804211B680360F3E7472B13D1754BDE
:101490001868FFF709FF774B1B6883F3088862B66B
:1014A000754B1B78002B00D13EE1664B06201B6874
:1014B0001B68984738E1542B04D101233370614BEA
:1014C0001B6864E04E2B0CD13378002B06D15D4BAA
:1014D00063491B680222D868FFF784FE002333703B
:1014E00022E1562B57D123686449D8680122FFF7BF
:1014F00079FE23686249D8680322FFF773FE614DC5
:101500002368291CD8680122FFF76CFE23685E4916
:10151000D8680D22FFF766FE2368291CD8680122CF
:10152000FFF760FE4B4F4C4D5849002339602B604C
:101530003A1C281C13685E1C16601B780593002B50
:1015400003D0036801330360F4E73E4E2A68336832
:10155000D868FFF747FE33684A49D8680122FFF789
:1015600041FE059929604A4939603A4A1368581C76
:1015700010601B78002B04D0374B1A6801321A60B8
:10158000F3E733682A68D868FFF72CFE3368D86819
:1015900033490222C6E0334A582B17D1244E264D38
:1015A000366813682A68B10093420AD21F4D580862
:1015B000E861384828801D4D287DC607FBD55B189B
:1015C000F2E7204B34491B68D868AAE0592B79D13F
:1015D00012681A4B3149002A02D11B680B606CE07B
:1015E000124D086819686B68104E8025AB4392084D
:1015F0007360002A61D02A4B0C4D2B800B4E337D3B
:10160000DD07FBD500230A4D2D680195AD08AB42DF
:1016100003D3244D054E358046E09342F9D09D001A
:10162000465901334E51EEE7A01C00000040004136
:101630004C020020440200204002002090020020C2
:101640003C02002094020020500200209000002064
:101650003402002038020020480200208E000020C2
:10166000001D00009C020020A0020020300200208B
:10167000920000209802002094000020DC1C000052
:10168000051D0000DE1C0000281D0000E01C0000FD
:10169000EC1C000002A5FFFFF51C000098000020D4
:1016A00044A5FFFF04A5FFFF3F4E357DEE07FBD5A8
:1016B0009D0049194019D21A9BE73C4B3C491B68D5
:1016C000D8682EE05A2B2FD13A4B17681D68002698
:1016D000EF19BD4206D02878311C00F013F901350E
:1016E000061CF6E7314B34491B680122D868FFF726
:1016F00079FD07230F223240111C36093031092AA7
:1017000000DD07311820C0186A468154013BF1D230
:10171000236806A9D8680822FFF764FD23682749D3
:10172000D8680322FFF75EFD254B7A221A70254BFD
:1017300000221A60244B1B7893422DD01B4B234967
:101740001B680122D868FFF74DFD25E0111C3039D8
:10175000C8B21C4B092804D81D682A01114319601E
:101760001AE0111C4139052903D81E68373A3101A6
:1017700006E0111C6139052904D81868573A01019F
:101780000A4308E02C2A03D10A4A1968116001E0D3
:101790000B490A7000221A600D4B1A6801321A6058
:1017A0000C4B1A680132D5E500400041940200203C
:1017B000F91C000090020020FD1C0000FF1C00002E
:1017C0003C0200209C0200208E000020031D00002F
:1017D000480200203802002010B51C4B01201A7866
:1017E000032402431A701A4B0F221978914319707F
:1017F00019782143197017490C782043087019781B
:101800000A401A701A7830210A431A70124B80214C
:101810001A6A0A431A62114B114A5A805A7852B214
:10182000002AFBDBC4220F480F499203FEF756FF44
:101830000E4A002313700E4A13700E4A13700E4A9C
:1018400013700E4A13700E4A137010BDD644004137
:10185000BB440041D744004100040040000C00405C
:1018600019400000001C00422AF60000A4020020DB
:101870002B030020A5020020A80200202C0300203A
:101880002903002008B5C1B20248FEF755FF012028
:1018900008BDC046001C0042024B187E4007C00F26
:1018A0007047C046001C004208B5FFF7F5FF00284E
:1018B000FBD00248FEF746FF08BDC046001C0042B0
:1018C00008B5FFF7E9FF0023984205D0FFF7ECFFCA
:1018D000031C233B5A425341181C08BD70B5041C1D
:1018E0000D1C4618B44204D02078FFF7CBFF01341A
:1018F000F8E7281C70BD10B5041CFFF7D5FF207059
:10190000012010BD0B0A5840034B4000C05A090289
:10191000484080B27047C046361D0000F0B53E4ECC
:1019200085B0002203900C1C32703C4B914201D1D7
:10193000012201E03A490C801A707F231C4201D039
:1019400080349C43FFF7B0FF3378C0B2002B07D040
:1019500000253570FFF7A8FF3378C0B2AB4236D10F
:10196000432803D0712853D01528EBD101230093CD
:101970000120FFF787FF0098FFF784FF009980257B
:10198000C843C0B2FFF77EFF039B00270293244A9F
:101990001388002B1DD1214901930978002918D102
:1019A0000198FFF76FFF391C0198FFF7ABFF013D6E
:1019B000071C002DEBD1000AC0B2FFF763FFF8B29D
:1019C000FFF760FFFFF770FF3378002B0AD0357008
:1019D0001FE00299013B09781380029B01910133BA
:1019E0000293DDE7C0B2062807D1009B03990133BB
:1019F000DBB280310093803C0391002CB8D10420ED
:101A0000FFF740FFFFF750FF044B01251C7000E07B
:101A10000025281C05B0F0BD290300202A03002062
:101A2000A6020020F7B50024051C0F1C261CBC4292
:101A300020D0FFF739FF114BC0B21B780190002B6B
:101A40001AD1311CFFF75EFF0D4B061C1A88002AC5
:101A500004D10C4A11782A1C002907D001996A1C6C
:101A60002970802F02D11988013919800134A4B25C
:101A7000151CDCE7301C00E00120FEBD290300201E
:101A8000A60200202A030020F0B5384C87B00023BE
:101A900001902370994201D1012301E0344A118061
:101AA000344A642613704320FFF7ECFE324FFFF7F1
:101AB000F3FE002803D1002F03D0013FF7E7002FEA
:101AC00003D1013E002EEED14DE00125FFF7ECFEE3
:101AD0002378002B38D1C0B20290012805D0042809
:101AE0003DD10620FFF7CEFE39E005AE0221301CC5
:101AF000FFF798FF01988021FFF794FF2378039068
:101B0000002B18D1FFF7D0FE0702FFF7CDFEBFB2C2
:101B100023783F18BFB2012B0DD0039B9F4207D102
:101B20003378AB4204D1EB437278DBB29A4204D0F3
:101B30001820FFF7A7FE002303E00620FFF7A2FE10
:101B4000029B2278002A02D0002626700BE0012B8F
:101B500005D1019A6B1C8032DDB20192B6E7054ACD
:101B6000002313700126301C07B0F0BD29030020AC
:101B7000A60200202A03002000350C00002934D0E2
:101B80000123002210B488422CD301242407A1424F
:101B900004D2814202D209011B01F8E7E400A1420C
:101BA00004D2814202D249005B00F8E7884201D3A7
:101BB000401A1A434C08A04202D3001B5C0822437F
:101BC0008C08A04202D3001B9C082243CC08A042F0
:101BD00002D3001BDC082243002803D01B0901D0DC
:101BE0000909E3E7101C10BC7047002801D0002051
:101BF000C04307B4024802A14018029003BDC0468A
:101C0000190000000029F0D003B5FFF7B9FF0EBCA2
:101C10004243891A1847C0467047C04610B5002392
:101C2000934203D0CC5CC4540133F9E710BD031CCC
:101C30008218934202D019700133FAE770470023EB
:101C4000C25C0133002AFBD1581E7047F8B5C0466C
:101C5000F8BC08BC9E467047F8B5C046F8BC08BC46
:101C60009E4670470403090441726475696E6F20D3
:101C70004C4C430041726475696E6F204D4B52208D
:101C800057414E2031333130000000001201000274
:101C9000020000404123590000020102000100003F
:101CA00008000000100000002000000040000000BC
:101CB000800000000001000000020000000400009D
:101CC00085180000A918000099180000DD18000010
:101CD000F71800001D190000891A00007600200086
:101CE00041707220333020323031390031323A3491
:101CF000313A353700580A0D00590A0D005A0023B1
:101D00000A0D003E00322E30000000000D110000D0
:101D10002911000045110000691100008511000023
:101D200069110000AD1100005B41726475696E6F4E
:101D30003A58595A5D000000211042206330844017
:101D4000A550C660E770088129914AA16BB18CC18A
:101D5000ADD1CEE1EFF13112100273325222B55201
:101D60009442F772D662399318837BB35AA3BDD3DA
:101D70009CC3FFF3DEE36224433420040114E664D1
:101D8000C774A44485546AA54BB528850995EEE52A
:101D9000CFF5ACC58DD55336722611163006D776E1
:101DA000F6669556B4465BB77AA719973887DFF77A
:101DB000FEE79DD7BCC7C448E5588668A7784008A9
:101DC000611802282338CCC9EDD98EE9AFF94889CA
:101DD00069990AA92BB9F55AD44AB77A966A711A41
:101DE000500A333A122AFDDBDCCBBFFB9EEB799B1A
:101DF000588B3BBB1AABA66C877CE44CC55C222C91
:101E0000033C600C411CAEED8FFDECCDCDDD2AAD69
:101E10000BBD688D499D977EB66ED55EF44E133E20
:101E2000322E511E700E9FFFBEEFDDDFFCCF1BBFB9
:101E30003AAF599F788F8891A981CAB1EBA10CD193
:101E40002DC14EF16FE18010A100C230E32004509B
:101E5000254046706760B9839893FBA3DAB33DC30E
:101E60001CD37FE35EF3B1029012F322D2323542EB
:101E7000145277625672EAB5CBA5A89589856EF59E
:101E80004FE52CD50DC5E234C324A014810466743B
:101E9000476424540544DBA7FAB79987B8975FE7EE
:101EA0007EF71DC73CD7D326F2369106B01657668B
:101EB0007676154634564CD96DC90EF92FE9C89976
:101EC000E9898AB9ABA94458654806782768C018DB
:101ED000E1088238A3287DCB5CDB3FEB1EFBF98B4E
:101EE000D89BBBAB9ABB754A545A376A167AF10A2B
:101EF000D01AB32A923A2EFD0FED6CDD4DCDAABD5E
:101F00008BADE89DC98D267C076C645C454CA23C7A
:101F1000832CE01CC10C1FEF3EFF5DCF7CDF9BAF2D
:101F2000BABFD98FF89F176E367E554E745E932ECA
:101F3000B23ED10EF01E00000000000001140000AF
:101F4000090243000201008032090400000102027C
:101F500000000524001001042402000524060001ED
:101F60000524010001070583030800FF090401009F
:101F7000020A000000070581024000000705020276
:101F80004000000000C201000000080069000000DD
:081F9000410000000000000008
:1020000000800020F1860000D9860000D9860000FB
:1020100000000000000000000000000000000000C0
:10202000000000000000000000000000D986000051
:102030000000000000000000D98600004587000075
:10204000D9860000D9860000D986000071580000AA
:102050007D7D0000D9860000D9860000DD86000065
:10206000D9860000D9860000D986000025510000DD
:10207000D9860000215E0000115E0000D9860000B4
:10208000D9860000D9860000D9860000D9860000D4
:1020900000000000D9860000D98600003D580000ED
:1020A000D9860000D9860000D9860000D9860000B4
:1020B0000000000010B5064C2378002B07D1054B1B
:1020C000002B02D0044800E000BF0123237010BDA4
:1020D000900200200000000030100100044B10B5F9
:1020E000002B03D00349044800E000BF10BDC046E8
:1020F00000000000940200203010010070B5054C73
:1021000025000C3C543528000C3D06F083F8A54210
:10211000F9D170BDCC04002010B5064C203C200045
:102120000C3006F077F8200006F074F8024B9C4261
:10213000F4D110BD2C0600202C05002070B5094DEF
:10214000094C303D2000183006F064F820000C30B7
:1021500006F060F82000303C06F05CF8AC42F1D1AB
:1021600070BDC0464C0300209C04002070B506F0F2
:10217000FDFA0825084C094B44430F20E41806F0EB
:1021800045FD013D6040002DF4D10300044A0921C2
:1021900004480AF0A1FC70BD0D6619005FF36E3CA7
:1021A0005CF5000004000020F0B595B06E46264DA9
:1021B0003200296928006B6903F0BCFD234C244FD1
:1021C000230007CE07C307CE07C307CE07C3326875
:1021D0001A602368BB4234D0261D2422002130001F
:1021E00009F074FC07221B49300027600AF0FEFC4E
:1021F0000722194919480AF0F9FC2000072218495A
:1022000014300AF0F3FC03232377164B0AAE236243
:10221000330007CC07C3114C07CC07C307CC07C357
:10222000226828001A606A69296903F071FD29692A
:1022300028006B69320003F01BFD0B490B4805F0C9
:10224000B3FE15B0F0BDC04600030020D40200204C
:1022500056EEFFC02AF500002EF50000E002002037
:1022600032F50000E093040036F50000CC110020A8
:1022700030B58BB06C460D4B0D4A1A60220023CB53
:1022800023C223CB23C223CB23C21B68094D136077
:102290006A692969280003F03BFD6B6922002969FE
:1022A000280003F0E5FC0BB030BDC046D40200208E
:1022B00056EEFFC00003002070B52C4C2C492000C6
:1022C00005F072FE2B49200005F048FE2A4D200043
:1022D000291D05F069FE2949200005F03FFE29006F
:1022E00020000C3105F060FE2549200005F036FE87
:1022F00029002000143105F057FE2249200005F086
:102300002DFE6B1DDB7F2049002B00D11F492000D3
:1023100005F04AFE1E49200005F020FE297F0A2212
:10232000200005F0ACFE1B49200005F017FE6B7F76
:102330001549002B00D11549200005F035FE16493E
:10234000200005F00BFEFA21286A890006F004FE41
:102350000A220100200005F082FE1049200005F04D
:1023600023FE0F49200005F01FFE70BDCC11002098
:10237000C2F50000E6F50000D4020020F6F50000EA
:1023800006F6000016F60000B7F50000BCF50000E8
:1023900026F6000036F6000046F6000056F600006D
:1023A00059F6000070B5050000240C263300634385
:1023B00005482900C01806F0A0F8002802D1013411
:1023C000082CF3D170BDC046CC04002001000C20C5
:1023D00010B5094C23685843084B181805F0CFFF77
:1023E0002368074A0133134004D50822013B5242B7
:1023F00013430133236010BDFC020020CC040020F5
:1024000007000080F0B5836887B006000D00002B40
:1024100067D08B68002B64D0444C03A8043421009F
:1024200005F047FF03A9300006F067F8070003A88E
:1024300005F0F0FE002F54D1210003A805F039FF6C
:1024400003A9280006F059F8070003A805F0E2FEEA
:10245000002F46D1364C7B0101931B1900931B7F43
:10246000002B2ED10137082FF4D100235A01A718D1
:1024700000923A7F002A36D13100380005F07FFF04
:10248000009829000C30201805F079FF06F068F953
:102490000123B8613B77274903A805F00AFF310003
:1024A00003A805F0F2FF244905F0FCFF290005F020
:1024B000ECFF0100214805F06DFD03A805F0AAFE20
:1024C0000FE03100009806F018F80028CAD00198F3
:1024D00029000C30001905F052FF06F041F9009B6D
:1024E000986107B0F0BD0133082BBFD10027073B2F
:1024F00059017A016118A21889699269914200D242
:102500001F000133082BF3D17B01E718310038009D
:10251000009305F034FF009829000C30201805F0D6
:102520002EFF06F01DF9B861DBE7C046D40200209B
:102530002C0500200DF5000024F50000CC11002032
:10254000F8B505000E0000240C4FE019037F002BA6
:102550000CD0310005F0D1FF002807D021000C314C
:10256000C919280005F01BFF2800F8BD802320347E
:102570005B009C42E8D13100F3E7C0462C05002007
:10258000F0B500231700302289B0254D009001914D
:1025900016005E43741921002C31029109780391D1
:1025A000002934D10099200005F0E9FE30000C30FC
:1025B0000199401905F0E3FE300018303900401948
:1025C00005F0DDFE06F0CCF8039B029AA36201231E
:1025D00060621370134905A805F06BFE009905A809
:1025E00005F053FF104905F05DFF019905F04DFF1F
:1025F0000E4905F057FF390005F047FF01000C4870
:1026000005F0C8FC05A805F005FE09B0F0BD0133D2
:10261000082BBDD10749064805F0C6FCF5E7C046C2
:102620004C030020C0F40000D7F40000E1F40000E7
:10263000CC110020E5F4000070B505000024302620
:10264000300060430200094B2C329A5C002A05D10D
:102650000134082CF4D10124644205E0C01829009B
:1026600005F04BFF0028F3D0200070BD4C03002084
:10267000072806D8302343430248C01800232C30D3
:10268000037070474C030020F7B5002706000D00CB
:102690003C000192019B22002C2128009F420CDA71
:1026A00005F06FFF002805DA0949300005F001FE4A
:1026B0003000FEBD441C0137ECE705F062FF031E4D
:1026C00000DAAB6822002900300005F0C9FFEFE70F
:1026D000CE0B010070B50D0004005F21280005F04D
:1026E0005FFF061E05DA0949200005F0E2FD200023
:1026F00070BD02002C21280005F06CFF3300421C45
:102700002900200005F0ACFFF1E7C046CE0B010028
:102710007FB50D000600124901A805F0CAFD01A908
:10272000280005F095FF040001A805F073FD002CBA
:1027300006DA0C49300005F0BCFD300004B070BD75
:10274000053422002C21280005F01BFF031E00DAAF
:10275000AB6822002900300005F082FFEDE7C0469B
:1027600048F80000CE0B0100F0B50D00160087B050
:102770004E49040003A805F09CFD290003A805F0BC
:1027800084FE4B4905F08EFE310005F07EFE01000F
:10279000484805F0FFFB03A805F03CFD464928002A
:1027A00005F0B9FE4549071E0BD14549280005F043
:1027B000B2FE019000281AD0B368013B062B06D95F
:1027C0004049200005F075FD200007B0F0BD3E4DEA
:1027D0000722280031680C300AF008FA3B4BEF74EE
:1027E0000535EF771F60FFF743FD3949E9E73949C0
:1027F000280005F090FE00280ED0B368013B062BA0
:10280000DED8314D07222800316814300AF0EEF985
:102810006B461B79EB76E6E72F49280005F07BFE37
:10282000002808D0300005F039FF431E042BC7D81C
:10283000254B1877D7E72949280005F06CFE0028BA
:102840000DD0300005F02AFF254B26499842B8DD0F
:10285000254B26499842B4DC1B4B1862C3E7244938
:10286000280005F058FE061E06D00122164B5A77A6
:10287000FFF7FEFC1F49A4E71F49280005F04BFEA7
:10288000002802D0104B5E77F2E71C49280005F0C3
:1028900042FE0028EED11A49280005F03CFE1949F5
:1028A000002800D18DE7FFF707FD9EE78EF70000B7
:1028B000A5F70000CC110020ABF70000B0F7000036
:1028C000B5F70000C0F70000D40200201C03002070
:1028D000CCF70000CFF70000DAF70000E4F70000C3
:1028E0000F270000F1F70000005C2605FFF700004D
:1028F0000CF8000014F8000025F800002CF8000087
:1029000033F8000038F8000070B504000E00150020
:1029100029498AB00C3104A805F0CBFC04A907A80A
:1029200005F03DFD254907A805F0BCFD210005F097
:10293000ACFD234C210005F0B5FD310005F0A5FDEF
:10294000210005F0AFFD290005F09FFD010001A861
:1029500005F025FD07A805F05DFC04A805F05AFC6C
:10296000184C1949200001F041FF78211E2005F084
:1029700034FA05F02BFF0021200002F03DF901A9F7
:10298000200005F0E4FA0021200001F0ADFE0F491F
:1029900007A805F08EFC01A907A805F076FD010047
:1029A0000B4805F0F7FA07A805F034FC01A805F07C
:1029B00031FC0AB070BDC046D4020020CDFA000040
:1029C00050F70000740600204058E536D3FA0000A6
:1029D000CC11002030B50D00140087B0010003A811
:1029E00005F0DDFC234903A805F05CFD290005F096
:1029F0004CFD214905F056FD210005F046FD010082
:102A0000684605F0CCFC03A805F004FC1B4C1C49EF
:102A1000200001F0EBFE2000182101F0D9FF502129
:102A2000142005F0DAF905F0D1FE0021200002F0B3
:102A3000E3F86946200005F08AFA0021200001F041
:102A400053FEC0212000490001F0C2FF0D4903A838
:102A500005F02FFC694603A805F017FD01000A48A0
:102A600005F098FA03A805F0D5FB684605F0D2FBFF
:102A700007B030BDC6F8000050F700007406002013
:102A80004058E536CCF80000CC11002030B587B0B6
:102A9000012201006846FFF7F7FD114903A805F080
:102AA00008FC03A9684605F060FD0024050003A8A2
:102AB00005F0B0FBA5420DD10A49684605F02BFD93
:102AC0000134002806D10849684605F024FD444237
:102AD00044410234684605F09DFB200007B030BD3C
:102AE0004EFE000044F8000099F90000F0B5040023
:102AF0009DB00E00151C0100022201A8FFF7C4FDC5
:102B00002100032204A8FFF7BFFD2100042207A82B
:102B1000FFF7BAFD052221000AA8FFF7B5FD7D49A0
:102B200013A805F0C6FB01A913A805F0AEFC7A496D
:102B300005F0B8FC04A905F0A8FC784905F0B2FC42
:102B400007A905F0A2FC764905F0ACFC0AA905F03E
:102B50009CFC744905F0A6FC04000A22310016A86A
:102B600005F0D7FB16A9200005F08FFC6E4905F093
:102B700099FC04000122291C19A805F025FC19A9BB
:102B8000200005F082FC694D0100280005F002FAE2
:102B900019A805F03FFB16A805F03CFB13A805F0AB
:102BA00039FB634F19A83E1D310005F082FB19A9BE
:102BB00001A805F0A2FC040019A805F02BFB002CCD
:102BC0004BD004A8FFF7EEFB002817D05949280086
:102BD00005F0EAF9310016A805F06BFB564919A873
:102BE00005F067FB16A819AA04A9FFF78DFE19A81E
:102BF00005F010FB16A805F00DFB35E00AAA07A9A1
:102C000016A8FFF7B1FD04A8FFF7E0FB310019A8F3
:102C100005F04FFB16AA04A919A8FFF775FE19A81D
:102C200005F0F8FA454919A805F043FB19A916A8BB
:102C300005F0CBFC040019A805F0ECFA002CD9DB58
:102C4000FA20400005F0C2FDBFF34F8F3C4B3D4AD8
:102C5000DA60BFF34F8FC046FDE77B7F002B11D1B9
:102C60003949280005F0A0F90AA805F0D3FA07A809
:102C700005F0D0FA04A805F0CDFA01A805F0CAFACB
:102C80001DB0F0BD01A90DA8FFF75AFC04A913A8B7
:102C900005F085FB2D4D13A8290005F003FC07A9BD
:102CA00005F0F3FB0C9B0600002B2ED0290016A884
:102CB00005F0FFFA0AA916A805F0E7FB010019A81C
:102CC00005F06DFB012419A9300005F0DEFB0100C1
:102CD00010A805F064FB19A805F09CFA002C02D09E
:102CE00016A805F097FA13A805F094FA10AA01A9FE
:102CF0000DA8FFF76FFE10AA01A90DA8FFF740FC71
:102D000010A805F087FA0DA875E7114919A805F074
:102D1000D0FAD8E79DF60000BBF60000C3F600002D
:102D2000A5F70000C9F60000D2F60000CC11002083
:102D3000D4020020D8F6000002F7000017F80000C7
:102D400000ED00E00400FA0509F7000050F700006C
:102D5000CE0B0100F0B50700002585B02E00194C00
:102D60002C3636193378002B24D0390001A805F011
:102D700016FB154901A805F095FB0100200018304D
:102D8000401905F0F2FB040001A805F043FA002CFD
:102D900010D000230D49337001A805F08AFA3900DC
:102DA00001A805F072FB0100094805F0F3F801A83D
:102DB00005F030FAC02330355B009D42CED105B01E
:102DC000F0BDC0464C03002050F700007BF6000029
:102DD000CC11002010B590B001000400032201A81E
:102DE000FFF752FC039B002B02D001A8FFF7B2FFB4
:102DF0002C21200005F0D4FBA368421C210004A86C
:102E000005F02EFC25490AA80C3105F052FA0AA952
:102E10000DA805F0C4FA22490DA805F043FB04A94A
:102E200005F033FB010007A805F0B9FA0DA805F07D
:102E3000F1F90AA805F0EEF91A4C1B49200001F03F
:102E4000D5FC78211E2004F0C8FF05F0BFFC00214E
:102E5000200001F0D1FE07A9200005F078F800213C
:102E6000200001F041FC11490DA805F022FA07A944
:102E70000DA805F00AFB01000D4805F08BF80DA820
:102E800005F0C8F907A805F0C5F904A805F0C2F9CE
:102E900001A805F0BFF910B010BDC046D402002053
:102EA00050F70000740600204058E536E2F80000B4
:102EB000CC11002030B585B00500FFF7BDFB041E26
:102EC00023DB134901A805F0F4F9290001A805F056
:102ED000DCFA104905F0E6FA01000F4805F05AF84F
:102EE00001A805F097F930206043020001000B4B68
:102EF00018320C31C018D218C918FFF76BFD142016
:102F000005F064FC2000FFF7B3FB05B030BDC04600
:102F1000ECF90000F9F90000CC1100204C0300206E
:102F2000F0B5254C8DB0237D002B43D02600002525
:102F30000C3601AF08223100380009F057FE082294
:102F40001E493000FD7109F051FE082239001B486E
:102F5000E57409F04BFE0534A575E37F5A425341F1
:102F6000E377174B1D60FFF783F9164903A805F0B7
:102F7000A0F9310006A805F09CF906A903A805F000
:102F800084FA114905F08EFA04000C4909A805F0ED
:102F900090F909A9200005F078FA01000B4804F027
:102FA000F9FF09A805F036F906A805F033F903A8DA
:102FB00005F030F90DB0F0BDD4020020E802002089
:102FC0001C030020C8F90000DEF90000CC1100202D
:102FD000F8B528222B492C4802F032FE01222B4B57
:102FE00052421A602A4A00255A6001221D725A7202
:102FF0004021284802F0AAF8274802F019F9274C86
:103000002748210040190C3505F053F9602DF6D101
:10301000244F25493A00002005F08CFF0026234D5F
:103020002100701905F045F928000C3080192100A5
:1030300005F03FF9802320365B009E42EFD13A0035
:103040001B49002005F076FF00261A4D2100A81923
:1030500005F02FF928000C308019210005F029F91E
:10306000280018308019210005F023F9C0233036DC
:103070005B009E42E9D13A000F49002005F05AFF5B
:10308000F8BDC04600FC000000030020C80200207C
:1030900000093D0020030020AC020020CE0B0100FF
:1030A000CC04002000000020FD2000002C050020A2
:1030B000192100004C0300203D210000FA2370B5C7
:1030C0009B000500984200D21D00184C18492000B2
:1030D00004F044FF0A222900200004F0C0FF154933
:1030E000200004F061FF200003F00EFB200003F03D
:1030F000F3FA2900104802F099FBE121200049026F
:1031000003F0F0F905F02CFB0500200003F03AFB7A
:10311000002805D105F024FB084B401B9842F4D948
:103120000749200004F040FF70BDC046CC110020CC
:10313000E8FA0000F4FA0000EC080020CF070000D5
:10314000F8FA000010B5064C0100200001F0E4FD83
:10315000200001F0EDFD43425841C0B210BDC04611
:10316000B006002070B5040005F0FAFA214A002CE0
:1031700004D113682049C31A8B421CD91060402027
:10318000FFF7E0FF1D4C2378002815D1002B04D059
:103190001B4920701B4804F007FF6120FFF7D2FF96
:1031A000194C002813D12378002B04D01749207024
:1031B000144804F0F9FE70BD002BEED1144802F063
:1031C00009F80028E9D1012312492370E2E72278A7
:1031D000002AF0D1104D01231049280002F062FAB4
:1031E0000028E8D00221280002F055FA01230C49FA
:1031F0002370DDE74403002087130000180300203C
:103200004EF80000CC110020190300208BF80000BC
:103210002003002064F80000AC020020B00600206B
:10322000A0F80000F0B5050093B00020FFF79AFF6A
:10323000744C754E210033680C310133684633609D
:1032400005F037F8694603A805F0A9F86F4903A807
:1032500005F028F907000A22217F06A805F048F8A2
:1032600006A9380005F011F9694905F01BF90700B6
:10327000211D09A805F01DF809A9380005F005F978
:10328000644905F00FF904000A2231680CA805F022
:1032900064F80CA9200005F0F8F85F4905F002F980
:1032A00004005E490FA805F004F80FA9200005F0FE
:1032B000ECF80100280005F072F80FA804F0AAFF4E
:1032C0000CA804F0A7FF09A804F0A4FF06A804F0C6
:1032D000A1FF03A804F09EFF684604F09BFF504E38
:1032E0003378002B37D04F4C1D2221004E4801F07F
:1032F0002FFF002800D07BE0267B637B36021E4335
:10330000A37BE47B1B0249490CA81C4304F0D1FFBA
:103310000A22310009A804F0FCFF09A90CA805F055
:10332000B4F8434905F0BEF806000A2221000FA8B0
:1033300004F0EFFF0FA9300005F0A7F80100280006
:1033400005F07FF80FA804F065FF09A804F062FFFC
:103350000CA804F05FFF374B1B78002B45D0364C90
:10336000200001F0A7FF00283FD0344909A804F04D
:10337000A0FF200002F0B9F80122011C06A805F008
:1033800023F806A909A805F080F82D4905F08AF868
:103390000600200002F097F80122011C0CA805F09D
:1033A00013F80CA9300005F070F8264905F07AF8FA
:1033B0000600200002F072F80A2201000FA804F0B3
:1033C000A8FF0FA9300005F060F80100280005F003
:1033D00038F80FA804F01EFF0CA804F01BFF06A885
:1033E00004F018FF09A804F015FF280013B0F0BD81
:1033F0000023154A154916483370136004F0D4FDB4
:10340000A9E7C046D40200204803002037F7000097
:1034100050F700003AF700003DF7000004000020DC
:1034200018030020210300202003002044F700009F
:103430004BF7000019030020AC02002082F70000C7
:1034400086F700008AF700004403002052F70000CE
:10345000CC110020F8B505000F0016000E4C826854
:103460004168200001F022F82B680021D8B205F055
:1034700087FC3900200000F022FF3100200000F01E
:103480001EFF060028680121C0B205F079FC20006B
:1034900000F08CFF3000F8BD2C06002070B5040051
:1034A0000160C8B2012105F01FFC23680121D8B2D8
:1034B00005F066FC1223002263716833A371793B27
:1034C0002271E2712272637242212000FFF7C2FF73
:1034D000154D06001549280004F040FD21680A2218
:1034E000280004F0B2FD1249280004F037FD0F2E29
:1034F00003D81049280004F031FD310010222800C3
:1035000004F0BDFD0C49122E05D0013EF6B20B4968
:10351000FD2E00D80A49280004F046FD8122200033
:103520001100FFF797FF70BDCC11002000FD0000D7
:103530000BFD00002A1001001FFD000034FD0000FB
:103540006FFD0000F7B5E121674C4902200002F051
:10355000C9FFFA20C00005F039F90121062005F065
:10356000C3FB0021062005F00BFC604E300001F08B
:103570000FFC002005F04AFB04F01EFCFEF7F6FDF0
:10358000FEF712FE5A49200004F00EFD59492000B2
:1035900004F0E4FC584F2000391D04F005FD5749A4
:1035A000200004F0DBFC5649200004F0FDFC5549E6
:1035B000200004F0D3FC390020000C3104F0F4FCAE
:1035C0005149200004F0CAFC7B7F5049002B00D1F8
:1035D0004F49200004F0E8FC4E49200004F0BEFCF6
:1035E000397F0A22200004F04AFD4B49200004F0F4
:1035F000DBFC4A4801F0EEFD002806D10122484BD1
:10360000484920001A7004F0CFFC474D01230022E6
:103610003100280002F046F800280AD00122434B6E
:10362000022128001A7002F036F84149200004F007
:10363000BBFC05F095F83F4B1860052301933E4D08
:103640003E49280001F039FA061E07D13C49200006
:1036500004F0AAFCFA20800005F0B8F8019B013BB9
:103660000193002B14D1002E14D13649200004F010
:103670009BFC200003F048F8334805F0A7F8BFF39F
:103680004F8F324B324ADA60BFF34F8FC046FDE7AF
:10369000002ED4D00921280001F0EFF82D49280090
:1036A00001F01CF93421280001F0A0F9C021280004
:1036B000490001F08DF9280001F09EF901220E2148
:1036C000280001F0E6F97B7F002B0BD00421224873
:1036D000FFF7E4FE0021280001F0F6FA1F49200060
:1036E00004F062FCF7BDC046CC110020B0060020FB
:1036F000CCFD0000F3FD0000D402002007FE000016
:103700000400002015FE000029FE00009DFD0000C1
:10371000B6FD000041FE0000CDFD000020030020AA
:103720001803002050FE0000AC0200201903002006
:1037300062FE000044030020740600204058E53675
:1037400073FE000098FE00001027000000ED00E06E
:103750000400FA0548E80100C8020020C7FE000086
:103760008122F8B504000F001100FFF773FE02205C
:1037700005F02CF8FF2292212000FFF76BFE872234
:1037800081212000FFF766FE04F0EAFF0425060011
:1037900004F0E6FF801BB8420AD20022122120006A
:1037A000FFF758FE284210D1642005F031F8EFE70A
:1037B0000025FF2292212000FFF74CFE81222000ED
:1037C0001100FFF747FE2800F8BD01250540F0E78E
:1037D000F0B59FB004000D00161CFFF757F9002844
:1037E00000D02BE19E4915A804F063FD210015A827
:1037F00004F04BFE9B4904F055FE07000A22290005
:1038000018A804F086FD18A9380004F03EFE964979
:1038100004F048FE07000122311C1BA804F0D4FD6F
:103820001BA9380004F031FE0100904804F0B2FBFF
:103830001BA804F0EFFC18A804F0ECFC15A804F099
:10384000E9FC21006846FEF745FF210003A8FEF7CA
:103850005FFF059B03A9002B00D1694606A804F071
:103860009EFD029B002B03D006A96846FEF7CAFD09
:1038700006A8FFF71FFB2C21200004F091FEA3688F
:10388000421C210009A804F0EBFE794C12A821008B
:103890000C3104F00EFD12A90FA804F080FD75494B
:1038A0000FA804F0FFFD09A904F0EFFD724904F030
:1038B000F9FD0700211D15A804F0FBFC15A938002F
:1038C00004F0E3FD6D4904F0EDFD04000A22290037
:1038D00018A804F01EFD18A9200004F0D6FD6849C0
:1038E00004F0E0FD04000122311C1BA804F06CFD73
:1038F0001BA9200004F0C9FD01000CA804F04FFD35
:103900001BA804F087FC18A804F084FC15A804F098
:1039100081FC0FA804F07EFC12A804F07BFC594C3B
:103920005949200000F062FFC821322004F055FA06
:1039300004F04CFF0021200001F05EF90CA92000EA
:1039400004F005FB0021200000F0CEFE4F491BA82B
:1039500004F0AFFC0CA91BA804F097FD010043483C
:1039600004F018FB1BA804F055FC04F0F9FE050058
:1039700004F0F6FE464B401B984246D8414F0021CA
:10398000380001F059F90028F2D0424915A804F096
:1039900090FC380000F078FE04003800002C06D0BF
:1039A00000F07AFEC1B215A804F066FDF1E700F060
:1039B00045FE0600380000F057FE220015A9071C3E
:1039C00018A8FEF761FE2A491BA8043104F071FC17
:1039D0001BA918A804F091FD041E06D015A8FFF736
:1039E00055F8013844424441E4B21BA804F012FCEB
:1039F00018A804F00FFC002C1CD015A83A1C3100AC
:103A0000FFF774F815A804F005FC1F491D4800F0E5
:103A1000EDFE0CA804F0FEFB09A804F0FBFB06A8D1
:103A200004F0F8FB03A804F0F5FB684604F0F2FB91
:103A30001FB0F0BD15A804F0EDFB99E7012809D1EE
:103A4000321C29002000FFF751F80F490D4800F003
:103A5000CDFEEDE70228EBD12000FFF7BBF9F4E73C
:103A600033F900004CF9000055F90000CC1100209A
:103A7000D402002050F7000048F800005BF9000075
:103A800062F90000740600204058E53668F900002D
:103A900057020000CE0B0100F0B5464D8DB04649EF
:103AA000280004F081FA6846FFF7BCFB434C444908
:103AB000200000F09BFEC821322004F08EF904F0B3
:103AC00085FE0021200001F097F86946200004F0EF
:103AD0003EFA0021200000F007FE3A4909A804F050
:103AE000E8FB694609A804F0D0FC0100280004F0B6
:103AF00051FA09A804F08EFB04F032FE050004F030
:103B00002FFE314B401B984246D82C4F00213800E5
:103B100001F092F80028F2D02C4903A804F0C9FB68
:103B2000380000F0B1FD04003800002C06D000F091
:103B3000B3FDC1B203A804F09FFCF1E700F07EFDE5
:103B40000600380000F090FD220003A9071C06A81B
:103B5000FEF79AFD1E4909A8043104F0AAFB09A941
:103B600006A804F0CAFC041E06D003A8FEF78EFFC8
:103B7000013844424441E4B209A804F04BFB06A8D2
:103B800004F048FB002C10D003A83A1C3100FEF7CB
:103B9000ADFF03A804F03EFB0949084800F026FEEB
:103BA000684604F037FB0DB0F0BD03A804F032FB0B
:103BB000A5E7C046CC110020FEF8000074060020E6
:103BC0004058E5361AF9000057020000CE0B0100FC
:103BD000D4020020F0B5514D8DB032212800FFF7FE
:103BE000BFFD4F4C00282ED1802281212800FFF7F5
:103BF00031FCC82004F00CFE022004F0E7FDFA209E
:103C00008000FFF75BFA200000F0E4FD022004F0E2
:103C1000DDFD4449200000F0E9FDC02120004900FD
:103C200000F0D6FEFA21404A890013685B18136041
:103C30003E4A126A934204D300223B4B1A60FFF7BC
:103C40002BFF0DB0F0BD3A493A4804F0ADF93549C3
:103C5000200000F0CBFD0021200001F035F804F039
:103C60007FFD050004F07CFD334B401B984250D88B
:103C70000021200000F0E0FF0028F3D02F4903A826
:103C800004F017FB200000F0FFFC06002000002ECF
:103C900006D000F001FDC1B203A804F0EDFBF1E78E
:103CA00000F0CCFC0190200000F0DEFC320003A903
:103CB000071C06A8FEF7E8FC1C4909A8043104F01B
:103CC000F8FA09A906A804F018FC060009A804F0EF
:103CD000A1FA002E16D03A1C019903A8FFF778FD2F
:103CE00006A804F097FA03A804F094FA04F038FD4B
:103CF0000D4B1A68551B281818600C4B1B6A98420C
:103D00009FD399E706A804F085FA03A804F082FA85
:103D1000A8E70B49074804F047F9E7E7C802002085
:103D2000740600204058E53640030020D4020020ED
:103D300062F50000CC11002097080000CE0B0100B6
:103D400088F50000FA2070B5764996B0800004F03E
:103D500044F80A22010001A804F0EDFA724D0DA802
:103D600029000C3104F0A5FA0DA910A804F017FBE6
:103D70006E4910A804F096FB0400291D13A804F056
:103D800098FA13A9200004F080FB694904F08AFB2B
:103D900001A904F07AFB010004A804F000FB13A8B9
:103DA00004F038FA10A804F035FA0DA804F032FA3D
:103DB000604C6149200000F019FDC021200049003D
:103DC00000F006FEC821322004F007F804F0FEFCE3
:103DD0000021200000F010FF04A9200004F0B7F833
:103DE0000021200000F080FC544913A804F061FA7F
:103DF00004A913A804F049FB0100514804F0CAF8D3
:103E000013A804F007FA0021200000F05DFF04F081
:103E1000A7FC060004F0A4FC4A4B801B984267D81C
:103E2000444C0021200000F007FF0028F2D0464952
:103E300007A804F03EFA200000F026FC021E07D07E
:103E4000200000F029FCC1B207A804F015FBF2E73E
:103E500007A90AA8FEF718FC291D0DA804F029FAE5
:103E60000DA90AA804F049FB041E1AD0012207A9D3
:103E700010A8FEF709FC354910A804F04CFB041EFD
:103E80000CD0032207A913A8FEF7FEFB01A913A873
:103E900004F033FB040013A804F0BCF910A804F0EC
:103EA000B9F90DA804F0B6F90AA804F0B3F9002C8A
:103EB0001AD0274913A804F0FCF907A913A804F0A5
:103EC000E4FA01001E4804F065F813A804F0A2F912
:103ED00007A804F09FF904A804F09CF901A804F0D5
:103EE00099F9200016B070BD07A804F093F991E786
:103EF000184913A804F0DDF9290010A80C3104F0CA
:103F0000D8F910A913A804F0C0FA01000C4804F075
:103F100041F810A804F07EF913A804F07BF90024FE
:103F2000D9E7C0460F270000D402002078F900002E
:103F300050F70000740600204058E53680F9000074
:103F4000CC110020C3090000CE0B010093F9000042
:103F50009DF90000B0F90000F0B591B0FFF7F2FE56
:103F6000AE4C002800D191E000232360AC4CAD4959
:103F7000200004F019F8FA20C00004F027FC04A87F
:103F8000FFF750F9A84DA949280000F02FFCC821DF
:103F9000322003F022FF04F019FC0121062004F076
:103FA000EFFE0021280000F027FE00260700B042A7
:103FB00008D004A9280003F0CAFF3100280000F04F
:103FC00093FB06000021062004F0DAFE002F00D14A
:103FD0008DE0002E00D18AE095490DA804F069F922
:103FE00004A90DA804F051FA0100200003F0D2FF4B
:103FF0000DA804F00FF91E2004F0E8FB8B492800FF
:1040000000F0F4FB0021280000F05EFE89490DA8B5
:1040100004F04FF996210A2289000AA804F079F9E0
:104020000AA90DA804F031FA834904F03BFA010013
:10403000200003F0AFFF0AA804F0ECF80DA804F08C
:10404000E9F804F08DFB00230600029304F088FBDE
:104050007A4B801B744D984200D9A1E000212800C2
:1040600000F0EAFD0028F1D0754907A804F021F915
:10407000280000F009FB07002800002F5DD000F0A9
:104080000BFBC1B207A804F0F7F9F1E723686D490B
:1040900001330AA8236004F00CF90A22216807A85A
:1040A00004F037F907A90AA804F0EFF9664904F00B
:1040B000F9F905000A2203210DA804F02AF90DA937
:1040C000280004F0E2F90100554803F063FF0DA851
:1040D00004F0A0F807A804F09DF80AA804F09AF8E4
:1040E0002368022B00DC41E7FEF71AFF3EE7574941
:1040F0000AA804F0DEF80A22390007A804F009F93A
:1041000007A90AA804F0C1F9514904F0CBF9070046
:104110000A2231000DA804F0FCF80DA9380004F0C3
:10412000B4F90100200003F035FF0DA804F072F887
:1041300007A804F06FF80AA85BE700F07FFA039085
:10414000280000F091FA3A0007A9051C0AA8FEF71A
:104150009BFA40490DA8043104F0ABF80DA90AA858
:1041600004F0CBF9071E06D007A8FEF78FFC013834
:1041700047424741FFB20DA804F04CF80AA804F0EA
:1041800049F8002F08D02A1C039907A8FEF7AEFCB7
:1041900004F0E6FA0600029707A804F03BF855E79A
:1041A000029B002B03D12C491D4803F0FDFE2B4937
:1041B0002B4803F012FE00270200264B1E6AC3178D
:1041C00092197B411600BB4204DB05D1FA239B0008
:1041D0009E4201D2FA26B6002249200003F0BEFE1C
:1041E000300007F0D5F900221F4B05F081FF0B00CE
:1041F000022102000091200004F004F81B49200075
:1042000003F0D2FE280000F0EBFA3000FEF756FF74
:1042100004A803F0FFFF11B0F0BDC0461C0300204E
:10422000CC1100203AFA0000740600204058E53610
:1042300059FA000089FA00009FFA000057020000B6
:10424000CE0B01001DFA000038FA000070FA0000E1
:1042500083FA0000D4020020A6FA0000983A000079
:1042600068C5FFFFBCFA000000408F40C8FA00009C
:1042700010B5054B5B7F002B02D0FFF7ABFC10BDE8
:10428000FFF76AFEFBE7C046D402002070B50600C7
:104290000C008D18AC4207D0336821789B68300041
:1042A000984720700134F5E770BD7047704710B52E
:1042B0000400406801F0B0FE0023237610BD10B565
:1042C000406801F0CEFE10BDF8B5050040680C0056
:1042D00001F0C2FE2B68E7B2260A9B68012810D1C4
:1042E00039002800FF2798472B68BC4304439B688C
:1042F000310028009847030220003840184380B25C
:10430000F8BD310028009847FF262B680002344092
:1043100004439B68390028009847B4432043EEE7E4
:1043200010B5040004F012FB200010BD10B54B1CAA
:104330000BD0102909D0EFF3108472B6102905DDD7
:1043400002234376002C00D162B610BD0123427EC9
:104350001A43427618224A430449891816228A567B
:104360009340C2691343C361ECE7C04620070100D4
:104370004B1C17D0102915D0437E9B0712D4EFF3A6
:10438000108272B618234B430749C9180123897D4F
:1043900049B28B40C1699943C16100D14176002A7D
:1043A00000D162B67047C04620070100437E002B53
:1043B00005D09A0704D5837E002B00D062B67047E3
:1043C000DB07FCD5C369024A9BB2D360F7E7C0465E
:1043D00000180040037E002B04D143768376C3612E
:1043E00001330376704700007FB5036902AE040015
:1043F0000D00029172608B4203D1828AB3889A4287
:1044000026D0200006223100103007F043FB606800
:1044100001F019FE7379E17A013B581E8341227B3A
:1044200000936068002301F0ABFF33790021013B6A
:10443000DBB2022B01D8074AD15C074B2A009D4210
:1044400000D91A00606801F0CFFD606801F0F1FD4D
:104450007FBDC046F1FE0000001BB70070B51826F6
:104460000400FFF7B7FF33000821207A0D4D4343C6
:10447000EB18595604F0B0FC33000821A07A4343EE
:10448000EB18595604F0A8FC0821607A4643AD1990
:10449000695604F0A1FC044B200006CBFFF7A4FFF3
:1044A00070BDC046200701006C06002007B5437EA2
:1044B00000910192002B07D09A070AD5EFF31083E1
:1044C0005A425341837672B60099019AFFF78CFFE6
:1044D00007BDDB07F8D5C369014A9BB29360F3E7D8
:1044E00000180040F7B500240125194B194A5D71E9
:1044F0001A601C71184B1948083301930360184B5C
:10450000184F4360184B194E038109233A003100BC
:104510004575046104758372063B0476C4720373A7
:1045200004F008FD1248134B019A4360124B457585
:10453000038125233100026004613A00047583720F
:10454000223B0476C472037304F0F4FCF7BDC0464A
:104550006C06002000093D00F4FE00002C0600203F
:10456000A4110020000000200A080000AD42000055
:104570004C060020BC1100202624000000207047BB
:1045800013B56B460268D9710733546819000122CC
:10459000A04716BD70470000FA239B0010B583604A
:1045A0000D4B0021083303600C4B04000361012311
:1045B00043750B4B416083611C23C3611D3B036248
:1045C0002033017543628162C1620163416381638B
:1045D00003F01EFE200010BD58FF0000400D030038
:1045E0004C06002070B504000E001500C3690021C0
:1045F000D8B204F0C5FBA069626903682169DB6970
:104600009847A069310003689B689847A069290012
:1046100003689B6898470500A06903681B6A984770
:10462000E0690121C0B204F0ABFB280070BD7F231C
:1046300010B519400022FFF7D5FF10BD70B51A2143
:104640000500FFF7F4FF0400A86A06F067FF802268
:10465000044BD20504F00CFEA423002800D1073B34
:10466000E01A70BDDD4ABF4110B51921FFF7DFFF29
:1046700040B206F053FF0022024B06F043F907F068
:104680000BF810BD0000D03F10B504001321FFF758
:10469000CEFFE36AC01A10BD036810B51B690400A1
:1046A0009847002807D0E36A00210133E362200025
:1046B000FFF7BDFF10BD01204042FBE710B51E21F2
:1046C000FFF7B5FF001110BD10B51D21FFF7AFFFBB
:1046D0000011092803DC034B8000C05810BD0120E5
:1046E0004042FBE730FF000070B504000D1E06D00D
:1046F000836B002B03D04022C021FFF773FF83227E
:1047000081212000FFF76EFF002D0ED10835122108
:104710002000FFF78CFF284202D104F084F8F6E76E
:10472000082292212000FFF75DFF012070BD70B5C7
:1047300001210400FFF77BFFC043012583070BD055
:1047400012212000FFF773FF08220025104203D03A
:1047500092212000FFF746FF280070BDF7B50D003D
:10476000222114000600FFF762FF03190700FF2B48
:1047700001D9FF24241A2B190193019B9D4206D0D5
:104780002A7880213000FFF72DFF0135F5E73A192F
:104790003000D2B2A221FFF725FF2000FEBD036842
:1047A00070B51B6904009847002810D00D21200027
:1047B000FFF73DFF002106002000FFF738FF05004E
:1047C00032008D212000FFF70DFF280070BD012071
:1047D0004042FBE7812210B51100FFF703FF10BD37
:1047E00010B580228121FFF7FDFE10BD70B50500D8
:1047F0000800A962C917430BC90419430B4A0023D7
:10480000C00404F097FD0400020CD2B228008621F7
:10481000FFF7E8FE220A2800D2B28721FFF7E2FE66
:104820002800E2B28821FFF7DDFE70BD0048E801F4
:10483000F8B50400FFF748FF06002000FFF73EFF31
:10484000262107002000FFF7F2FE01210500B940F4
:10485000300004F00BFC0100FA20800004F006FC9C
:1048600008212A008A43D2B2102801DD0D43EAB2A2
:10487000A6212000FFF7B6FEF8BD70B505000C00BC
:10488000052903DD0C291DDC06291CD1C522B12117
:104890002800FFF7A7FE0C22B7212800FFF7A2FE91
:1048A000062428001E21FFF7C2FE0F222401024029
:1048B0002243D2B29E212800FFF794FE2800FFF782
:1048C000B7FF70BD0C24C322B1212800FFF78AFE78
:1048D0000A22B7212800FFF785FEE2E7F8B50500B8
:1048E000080006F01BFE0022304B06000F000024DB
:1048F00004F0C8FCA04247D100222D4B3000390003
:1049000004F0C0FC013400283ED10022294B3000C5
:10491000390004F0B7FC0134002835D10022264BC1
:104920003000390004F0AEFC013400282CD1002204
:10493000224B3000390004F0A5FC0134002823D1BB
:1049400000221F4B3000390004F09CFC0134002889
:104950001AD100221B4B3000390004F093FC0134C3
:10496000002811D10022184B3000390004F08AFCD5
:104970000134002808D10022144B3000390004F023
:1049800081FC44424441083428001D21FFF74FFEBA
:104990000F22240102402243D2B29D212800FFF7BA
:1049A00021FE2800FFF744FFF8BDC0460078BE4056
:1049B0000050C4400078CE400050D4408084DE4097
:1049C000805CE4408084EE408084FE4080840E4120
:1049D00070B505000C000A12D2B2A021FFF702FE4A
:1049E0002800E2B2A121FFF7FDFD70BD10B5CAB2EB
:1049F000B921FFF7F7FD10BD10B51E210400FFF728
:104A000016FE04220243D2B29E212000FFF7EAFDE7
:104A100010BD10B5040078290ED82D3908000521E5
:104A200004F024FBC2B21F200240013002438B215C
:104A30002000FFF7D7FD10BD1B22F029F3D81E314F
:104A400008000A21ECE770B505000C00112916DDFD
:104A5000142900DD1424CD2187222800FFF7C2FD90
:104A60008C21033C2800FFF7D4FF8022023C5242F5
:104A700022432800D2B28921FFF7B4FD70BD02297C
:104A800000DA0224CD2184222800FFF7ABFD642147
:104A9000E8E710B5002A0DD10E2907DD0E2170229E
:104AA0000A43D2B28921FFF79DFD10BDCA43D21738
:104AB0001140F4E7FFF7C7FFF7E770B504000E00F9
:104AC0001C20012104F010F900211C2004F058F9E9
:104AD0000121212004F008F90021212004F050F9DF
:104AE00001211E2004F000F901211E2004F048F9E4
:104AF000C82003F06BFE00211E2004F041F9C820FD
:104B000003F064FE01211E2004F03AF9322003F084
:104B10005DFEE3690121D8B204F0E6F8E369012102
:104B2000D8B204F02DF9206A431C13D0C0B2012181
:104B300004F0DAF8236A0021D8B204F021F90A203F
:104B400003F044FE236A0121D8B204F019F90A20C7
:104B500003F03CFEA06900250368DB6A9847422108
:104B60002000FFF764FD122828D12000FFF738FE4F
:104B700031002000FFF73AFE2A008E212000FFF7C7
:104B800031FD2A008F212000FFF72CFD0C21200091
:104B9000FFF74DFD03220243D2B28C212000FFF724
:104BA00021FD0422A6212000FFF71CFD1121200079
:104BB000FFF749FF2000FFF70DFE0135280070BD0B
:104BC000002310B51D2103630400FFF730FDFE2212
:104BD0009D2102402000FFF705FD10BD70B50124A6
:104BE0001D2104630500FFF722FD0443E2B2280003
:104BF0009D21FFF7F7FC70BD70B504000D00FFF7B5
:104C000096FD0023984212D12000FFF7E3FD20001B
:104C1000002D0ED0FFF7E2FF00228D212000FFF7CC
:104C2000E1FC0022A2212000FFF7DCFC0123180098
:104C300070BDFFF7C5FFEFE770B50E00122104004D
:104C4000FFF7F5FC05002000002E28DDFFF7C6FF6A
:104C5000F2B2A2212000FFF7C5FC2A009221200019
:104C6000FFF7C0FC60231D40402D1BD10023E362F1
:104C7000236B2221002B00D113212000FFF7D7FC4A
:104C8000102105002000FFF7D2FC8D21020020003A
:104C9000FFF7A8FC2000FFF79DFD280070BDFFF77F
:104CA0008FFFDAE701212000FFF7C1FC00258628ED
:104CB000F3D02A008D212000FFF794FC8622812169
:104CC0002000FFF78FFCE8E770B504000D0000221C
:104CD000C021FFF787FC2000002D0CDDFFF77EFFD1
:104CE000EAB2A2212000FFF77DFC8522812120006D
:104CF000FFF778FC70BDFFF763FFF6E710B50248D9
:104D0000FFF74AFC10BDC0467406002010B50368CA
:104D10009C6B0123A04710BD8C2300229B00C15433
:104D2000103BC3185A609A60DA600123837570479C
:104D300010B5036801211B6B984710BDF8B505003D
:104D40000E0017000024BC4208D02B68315D1B68A0
:104D500028009847002801D00134F4E72000F8BD6E
:104D6000FC30406A704770478E239B00C1507047EB
:104D70008D239B00C15070470300FC335A6A002A00
:104D800003D01B6AC018007E704701204042FBE739
:104D900070B5060018250C49006901F03BFB30692D
:104DA00001F079F92B000821307D084C4343E318CA
:104DB000595604F011F80821707D45436419615675
:104DC00004F00AF870BDC046A0860100200701006B
:104DD00070B504000D00006901F072F92900206926
:104DE00001F018FB206901F056F970BD10B500699B
:104DF00001F066F910BD0000F7B50193FA23802693
:104E0000002504009B008360134B760008330F00DD
:104E100045602900009203603200183006F056FE0B
:104E200023002000FC332530DD6132001D622900A3
:104E30005D62FF3006F04AFE88239B00E3185D6048
:104E40009D60DD606B461B78276123756B461B797F
:104E5000A57520006375FEBD7CFF000070B50600DF
:104E60001825006901F0B1FA306901F014F92B003E
:104E70000821307D064C4343E318595603F0ACFF3C
:104E80000821707D45436419615603F0A5FF70BD8C
:104E90002007010010B50022FFF7E0FF10BD03005E
:104EA000802210B5FC33DC685200944208D05A6866
:104EB00081545A680132D2B25A60DA680132DA603B
:104EC00010BDF7B50400171E019302D1002528007C
:104ED000FEBD03000022FC33DA611A625A620069E7
:104EE000013201F01FF9061EF0D0230020691833AB
:104EF000009301F0AAF901000098FFF7D0FF012507
:104F00002069BD4214D001F07EF900280FD020693D
:104F100001F0E8F80221206901F0EEF8206901F0C3
:104F200094F901000098FFF7BAFF0135E8E70600A1
:104F3000206901F0CFF8019B002B06D0002E06D08F
:104F40000321206901F0D8F8C1E7002EBFD1013D4F
:104F5000BDE7002310B5827D9A420CD088229200D2
:104F60008218D46880225200944204D02530FF3049
:104F7000FFF795FF0123180010BD0300FC33DA682A
:104F8000002A09D09A68805C9A680132D2B29A608D
:104F9000DA68013ADA60704701204042FBE70022FC
:104FA0008C2370B59B00827504000E00C15C006903
:104FB00001F0B8F8002806D10321206901F09CF81F
:104FC0000225280070BD88239B00E318DD68002DB2
:104FD00011D020002530FF302569FFF7CEFFC1B288
:104FE000280001F0E1F80028EDD10321206901F04B
:104FF00083F80325E5E7002EE3D00321206901F0C3
:105000007BF8DEE710B51830FFF7B7FF10BD70B5BD
:105010000400006901F0EEF8002815D0206901F0C5
:1050200000F9002811D0206901F05CF80321206903
:1050300001F062F88E239B00E558002D35D1002346
:10504000FC34E3612362636270BD206901F0F3F810
:10505000002809D0206901F0E9F8002804D020696F
:1050600001F0EEF80028DED0206901F0E4F8002815
:1050700021D1206901F0D0F80028E5D0206901F0A5
:10508000DFF8002833D088239B00E318DB68FF217A
:10509000002B05D020002530FF30FFF76EFFC1B296
:1050A000206901F099F8A075CEE7236820001B69FC
:1050B0009847A847C3E7206901F014F82069032145
:1050C00001F01AF8206901F0BBF80028BCD0882351
:1050D00000229B00E3185A609A60DA600123A375EE
:1050E0008D239B00E3589342AED09847ACE7230052
:1050F000FC335A6A802320695B009A4206D100F093
:10510000E9FF0321206900F0F7FF9DE701F09DF81A
:10511000010020001830FFF7C2FE206900F0E2FF16
:10512000EFE7000010B50248FFF771FF10BDC04661
:10513000B006002010B50C230B2202490248FFF7ED
:105140005BFE10BDAC110020B0060020017070475E
:10515000F8B5114E0C00150040211D223000FFF75C
:10516000D5FD0B273000FFF7FBFDA84208D16519DC
:10517000AC420FD03000FFF745FF20700134F7E755
:10518000013F002F03D0012003F020FBEAE70220BB
:105190004042F8BD0020FCE7B006002070B50D00CD
:1051A000084C01782000FFF7B7FD29002000FFF729
:1051B000D0FE2000FFF7BCFD0023984200D0023B48
:1051C000180070BDB006002010B58821FFF7E6FF7B
:1051D00010BD000070B504000E48FFF7D9FD200097
:1051E000FFF7F2FF051E12D00B4C0C49200002F015
:1051F000B5FE0A223221200002F023FF08492000D8
:1052000002F0ACFE0A222900200002F01EFF280056
:1052100070BDC046B0060020CC110020CCFF0000BD
:105220002E00010010B50368C9B21B68984710BD75
:105230000023002243608360C3600123027443742F
:105240008374C3740276704770B504000D00006863
:1052500061210368DB6A984729122068FFF7E2FFA3
:10526000E9B22068FFF7DEFF206803685B6B9847B0
:10527000002801D0002070BD032003F0A7FA2068A9
:10528000022203686121DB6B9847206803681B6971
:1052900098470028EED0206803685B6998470500AE
:1052A00020682D0203685B699847C0B2284380B22A
:1052B000E1E7000010B50449FFF7C6FF013843429B
:1052C0005841C0B210BDC04602020000F0B5FF2038
:1052D000082531268A1891420FD00B7858402B00B0
:1052E00047B24400E0B2002F01DA7440E0B2013B63
:1052F000DBB2002BF4D10131EDE7F0BDF0B589B0A0
:105300000400FFF7D7FF01900390002800D1ACE024
:105310000023206805930693079303686121DB6AE5
:10532000984703212068FFF77DFF00212068FFF7E1
:1053300079FF206803685B6B9847051E02D0002345
:10534000019392E0032003F041FA206812220368DF
:105350006121DB6B98470600206803681B6998474A
:10536000071E70D02F002068EBB2029303685B69C0
:105370009847C6B2112D3DD00123D822AB4052022E
:1053800013422ED1D822D200134221D11B22134224
:1053900030D0EBB2022B19D803235B1B05AAD654DD
:1053A0000321E8B203F05EFE04ABC9B25E540135DE
:1053B000122DD8D1002F5BD1059B67746360079BCA
:1053C000A774A360069BE774E3604EE00423E4E760
:1053D000EBB2082B03D809235B1B07AADFE70A23DC
:1053E000FAE7EBB20E2B03D80F235B1B06AAD6E716
:1053F0001023FAE7022204A92000FFF767FF0290BA
:105400008642D4D0277E002F1BD01E49606902F04F
:105410009AFD0A22E9B2606902F02DFE1A4960691C
:1054200002F091FD10220299606902F024FE1749F2
:10543000606902F088FD10223100606902F01FFEF1
:10544000B5E7039FB3E7237E002B00D177E7104930
:10545000606902F078FDF1B20A22606902F00BFE89
:105460000C49606902F08CFD0197019809B0F0BD0C
:10547000237E002B00D162E70749606902F080FDBE
:105480005DE7C046770001009B000100A900010014
:10549000B2000100FF0001000601010010B5437CCD
:1054A0000400002B08D0FFF729FF002804D1237C3B
:1054B000002B01D10023636001236068637403F053
:1054C00059FF80B210BD10B5837C0400002B08D0BA
:1054D000FFF714FF002804D1237C002B01D1002307
:1054E000E3600123E068A37410BD10B5C37C040021
:1054F000002B08D0FFF702FF002804D1237C002BEB
:1055000001D10023A3600123A068E37410BD000053
:10551000F7B504000D000068612103681700DB6A1D
:10552000984729122068FFF77DFEE9B22068FFF74F
:1055300079FE206803685B6B9847002801D0002043
:10554000FEBD032003F042F92068032203686121B5
:10555000DB6B9847206803681B6998470028EED0EA
:10556000206801AD03685B6998472870206803686C
:105570005B6998476870206803685B6998472A7878
:105580006B78120213432900C6B23B80022220002E
:10559000FFF79CFE05000120AE42D1D0237E002BF8
:1055A000CDD00949606902F0CEFC10222900606963
:1055B00002F061FD0549606902F0C5FC102231006E
:1055C000606902F05CFDBAE750000100A90001002B
:1055D00073B56B46D1219E1D320009020400FFF70E
:1055E00097FF00280CD0257E002D09D00549606961
:1055F00002F0A9FC31881022606902F026FD280023
:1056000076BDC0463C000100F0B585B00E0003A990
:10561000171215004A70022204000F70FFF756FEA1
:105620000190206861210368DB6A98473112206885
:10563000FFF7F8FDFF2120683140FFF7F3FD390047
:105640002068FFF7EFFDFF2120682940FFF7EAFD02
:105650002068019903681B689847206803685B6BA2
:10566000984743425841C0B205B0F0BD10B50A1E7C
:1056700000D001220149FFF7C7FF10BD065300000B
:1056800010B50A001021FFF7BFFF10BD10B50021B3
:10569000FFF7F6FF10BD0A008C2110B5C901FFF716
:1056A000B3FF10BDF8B50160050016001F00FFF73D
:1056B0008FFF041E02D100242000F8BD002FFBD074
:1056C0002800FFF7E3FF041EF5D002212800FFF7B2
:1056D000E2FF31002800FFF7C9FFEDE7114B124947
:1056E0005A880A405A805A78D209FCD10F4A5A8007
:1056F0005A78D209FCD10E4A5A605A7852B2002A1E
:10570000FBDB8022596892030A435A605A7852B2EE
:10571000002AFBDBC023074A9B0051680B43536000
:105720007047C046000C0040FFBFFFFF0546000069
:10573000060301000040004170B5124801F022F854
:10574000114C002819D0200001F0D2F900200222CB
:105750000E4B0F4D19689143196004212E69314396
:105760002961BFF34F8F30BF19680A431A600028C0
:1057700002D0200001F0C6F970BD200001F000FA4F
:105780000120E4E7CC1100203012002010E000E0FE
:1057900000ED00E0F8B50C00050016001F0000F059
:1057A000CFFAA0420AD2FF2C07D10021280000F036
:1057B000C9F93100280000F07DF8F8BD182216253F
:1057C00062430A4B9B185D576B1CF6D0102DF4D02A
:1057D0003A003100E0B202F039FAFFF77FFF01230F
:1057E000AB40034A51690B435361E6E720070100D0
:1057F00000180040027870B504000E00002A03D1A2
:105800001300FF21FFF7C6FF200000F045F9FA2141
:1058100005008900300003F09FFB4119200000F0D3
:10582000E9F80621200000F031F870BD10B5040041
:10583000FFF7E0FF2000FFF77FFF10BD042310B546
:10584000034A117E0B431376024B5B68984710BDE9
:1058500000400042EC08002010B5024800F004F8B7
:1058600010BDC046EC080020002303707047000004
:10587000044B10B51B68002B00D098470122024B47
:105880001A7210BDF408002000140040037810B50F
:10589000002B0BD00724064B21401A7F0800A2439F
:1058A0001100014319779A7AD209FCD110BDC04684
:1058B00000140040014B19607047C046F4080020F6
:1058C000037810B5002B0BD03F24064B21409A697A
:1058D0000800A2431100014399619A7AD209FCD1D0
:1058E00010BDC046001400400378002B0BD03F20B1
:1058F000054B08409A6905498001114001439961AF
:105900009A7AD209FCD17047001400403FF0FFFFA3
:105910000378002B0BD01F20054B08409A690549DE
:1059200000031140014399619A7AD209FCD1704772
:1059300000140040FF0FFEFF70B51600027804004F
:105940000D00002A0AD01900FFF7BAFF310020002D
:10595000FFF7CAFF29002000FFF7DAFF70BD000043
:105960000378002B0BD01F20054B08409A6905498E
:1059700040041140014399619A7AD209FCD17047E1
:1059800000140040FFFFC1FF0378002B0BD00F2055
:10599000054B08409A69054980051140014399610A
:1059A0009A7AD209FCD1704700140040FFFF3FFCF7
:1059B0000378002B09D0054A880693699901890963
:1059C00001439161937ADB09FCD1704700140040D8
:1059D00070B51D00037804001600002B09D0FFF7F6
:1059E000BFFF31002000FFF7CFFF29002000FFF7A5
:1059F000DFFF70BD037837B50500002B1ED0104BBC
:105A0000994200D21900002368460091019305F0E5
:105A100005FF040043690269C168643B0132DBB2DF
:105A2000D2B2C9B22800FFF7D3FF23686268A16829
:105A3000DBB2D2B2C9B22800FFF77EFF37BDC04645
:105A400080436D38094B0A4A9A605A7852B2002A4C
:105A5000FBDB084A5A605A7852B2002AFBDB064A3E
:105A60005A805A78D209FCD17047C046000C0040D9
:105A70000204000002051100044200000378002B1C
:105A800005D0034B034A5A809A7AD209FCD1704759
:105A9000001400400080FFFF00B58BB0FFF7EEFF61
:105AA00001220F4B52421B69099200220892079271
:105AB0009A0E643206929A01120F013A05929A02E6
:105AC000D20E0492DA03D20E03921A059B06920EAE
:105AD0009B0E01A80292019306F0CAF80BB000BD1C
:105AE000001400400221044B1A888A431A809A7AD3
:105AF000D209FCD17047C046001400400222044B7A
:105B000019880A431A809A7AD209FCD17047C04694
:105B1000001400400122044B19880A431A809A7A23
:105B2000D209FCD17047C046001400400121044B4B
:105B30001A888A431A809A7AD209FCD17047C046E3
