:1020000000800020E9860000D1860000D186000013
:1020100000000000000000000000000000000000C0
:10202000000000000000000000000000D186000059
:102030000000000000000000D18600003D87000085
:10204000D1860000D1860000D186000069580000CA
:10205000757D0000D1860000D1860000D586000085
:10206000D1860000D1860000D18600001D510000FD
:10207000D1860000195E0000095E0000D1860000D4
:10208000D1860000D1860000D1860000D1860000F4
:1020900000000000D1860000D18600003558000005
:1020A000D1860000D1860000D1860000D1860000D4
:1020B0000000000010B5064C2378002B07D1054B1B
:1020C000002B02D0044800E000BF0123237010BDA4
:1020D0009002002000000000300F0100044B10B5FA
:1020E000002B03D00349044800E000BF10BDC046E8
:1020F0000000000094020020300F010070B5054C74
:1021000025000C3C543528000C3D06F07FF8A54214
:10211000F9D170BDBC04002010B5064C203C200055
:102120000C3006F073F8200006F070F8024B9C4269
:10213000F4D110BD200600202005002070B5094D07
:10214000094C303D2000183006F060F820000C30BB
:1021500006F05CF82000303C06F058F8AC42F1D1B3
:1021600070BDC0463C0300208C040020034B044893
:102170001B78002B01D103480C307047200600204B
:1021800004000020D402002070B506F0EBFA082508
:10219000084C094B44430F20E41806F033FD013D81
:1021A0006040002DF4D10300044A092104480AF0DC
:1021B0008FFC70BD0D6619005FF36E3C50F500009A
:1021C0000C000020F0B58FB06E46204D320029691A
:1021D00028006B6903F0AAFD1D4C1E4F230007CE9B
:1021E00007C307CE07C332681A602368BB422BD0EF
:1021F000261D14220021300009F064FC0722164934
:10220000300027600AF0EEFC1449072214480AF057
:10221000E9FC032307AE23753300124AA26183CC85
:1022200083C30F4991C991C31A606A69296928005B
:1022300003F06AFD296928006B69320003F014FD80
:1022400009490A4805F0ACFE0FB0F0BDF4020020C9
:10225000D402002057EEFFC022F5000026F5000052
:10226000E0020020E09304002AF50000C4110020E1
:1022700030B50D4B89B00D4A01AD1A602A0013CB61
:1022800013C213CB13C21B68094C13606269216926
:10229000200003F039FD63692A002169200003F062
:1022A000E3FC09B030BDC046D402002057EEFFC0A9
:1022B000F402002070B52A4C2A49200005F070FE77
:1022C0002949200005F046FE284D2000291D05F073
:1022D00067FE2749200005F03DFE290020000C3153
:1022E00005F05EFE2349200005F034FE224920005F
:1022F00005F056FE2149200005F02CFEFFF736FFC1
:102300000100200005F04CFE1D49200005F022FED2
:10231000297D0A22200005F0AEFE1A49200005F0B2
:1023200019FE6B7D1849002B00D11849200005F0DB
:1023300037FE1749200005F00DFEFA21A869890033
:1023400006F006FE0A220100200005F084FE114975
:10235000200005F025FE1049200005F021FE70BD8B
:10236000C4110020B6F50000DAF50000D402002008
:10237000EAF50000FAF50000040000200AF600006B
:102380001AF600002AF60000ABF50000B0F50000D8
:102390003AF600004AF600004DF6000070B5050060
:1023A00000240C263300634305482900C01806F0BA
:1023B000A0F8002802D10134082CF3D170BDC0462A
:1023C000BC04002001000C2010B5094C23685843C0
:1023D000084B181805F0CFFF2368074A0133134054
:1023E00004D50822013B524213430133236010BD40
:1023F000F0020020BC04002007000080F0B58368D4
:1024000087B006000D00002B67D08B68002B64D0CE
:10241000444C03A80434210005F047FF03A9300011
:1024200006F067F8070003A805F0F0FE002F54D16E
:10243000210003A805F039FF03A9280006F059F888
:10244000070003A805F0E2FE002F46D1364C7B01C1
:1024500001931B1900931B7F002B2ED10137082FEE
:10246000F4D100235A01A71800923A7F002A36D1EE
:102470003100380005F07FFF009829000C3020184B
:1024800005F079FF06F068F90123B8613B77274929
:1024900003A805F00AFF310003A805F0F2FF244964
:1024A00005F0FCFF290005F0ECFF0100214805F0D4
:1024B0006DFD03A805F0AAFE0FE03100009806F0BC
:1024C00018F80028CAD0019829000C30001905F02E
:1024D00052FF06F041F9009B986107B0F0BD01334F
:1024E000082BBFD10027073B59017A016118A218B8
:1024F00089699269914200D21F000133082BF3D100
:102500007B01E71831003800009305F034FF009894
:1025100029000C30201805F02EFF06F01DF9B861D7
:10252000DBE7C046D40200202005002005F50000AE
:102530001CF50000C4110020F8B505000E000024B1
:102540000C4FE019037F002B0CD0310005F0D1FFB8
:10255000002807D021000C31C919280005F01BFF05
:102560002800F8BD802320345B009C42E8D1310074
:10257000F3E7C04620050020F0B500231700302205
:1025800089B0254D0090019116005E437419210019
:102590002C31029109780391002934D1009920004F
:1025A00005F0E9FE30000C300199401905F0E3FE1A
:1025B000300018303900401905F0DDFE06F0CCF887
:1025C000039B029AA362012360621370134905A85A
:1025D00005F06BFE009905A805F053FF104905F0C2
:1025E0005DFF019905F04DFF0E4905F057FF3900D9
:1025F00005F047FF01000C4805F0C8FC05A805F0F0
:1026000005FE09B0F0BD0133082BBDD107490648CE
:1026100005F0C6FCF5E7C0463C030020B8F4000016
:10262000CFF40000D9F40000C4110020DDF4000054
:1026300070B5050000243026300060430200094BCD
:102640002C329A5C002A05D10134082CF4D10124E3
:10265000644205E0C018290005F04BFF0028F3D0C4
:10266000200070BD3C030020072806D830234343D8
:102670000248C01800232C30037070473C03002030
:10268000F7B5002706000D003C000192019B2200D7
:102690002C2128009F420CDA05F06FFF002805DA94
:1026A0000949300005F001FE3000FEBD441C013731
:1026B000ECE705F062FF031E00DAAB682200290098
:1026C000300005F0C9FFEFE7CE0A010070B50D003C
:1026D00004005F21280005F05FFF061E05DA0949A6
:1026E000200005F0E2FD200070BD02002C21280032
:1026F00005F06CFF3300421C2900200005F0ACFF00
:10270000F1E7C046CE0A01007FB50D000600124970
:1027100001A805F0CAFD01A9280005F095FF0400F5
:1027200001A805F073FD002C06DA0C49300005F015
:10273000BCFD300004B070BD053422002C212800FF
:1027400005F01BFF031E00DAAB68220029003000F1
:1027500005F082FFEDE7C0468CF80000CE0A0100CC
:10276000F0B50D00160087B04E49040003A805F02F
:102770009CFD290003A805F084FE4B4905F08EFE60
:10278000310005F07EFE0100484805F0FFFB03A87C
:1027900005F03CFD4649280005F0B9FE4549071EF5
:1027A0000BD14549280005F0B2FE0190002819D050
:1027B000B368013B062B06D94049200005F075FDA2
:1027C000200007B0F0BD3E4D0722280031680C30D4
:1027D0000AF008FA3B4BEF741F703B4B1F70FFF77A
:1027E00047FD12E03949280005F091FE00280ED07F
:1027F000B368013B062BDFD8354D0722316828002E
:102800000AF0F0F96B461B79EB713249D5E7324992
:10281000280005F07CFE002808D0300005F03AFFC3
:10282000431E042BC8D8264B1875D8E72B4928001F
:1028300005F06DFE00280DD0300005F02BFF284B71
:1028400028499842B9DD284B28499842B5DC1C4BF1
:102850009861C4E72649280005F059FE061E06D0F7
:102860000122174B5A75FFF703FD2249A5E72249BC
:10287000280005F04CFE002802D0114B5E75F2E7EF
:102880001E49280005F043FE0028EED11C4928000F
:1028900005F03DFE1B49002800D18EE7FFF70AFD39
:1028A000B3E7C046D2F70000E9F70000C4110020EA
:1028B000EFF70000F4F70000F9F7000004F800005B
:1028C000D4020020200600201C05002013F8000080
:1028D0000400002010F800001EF8000028F8000096
:1028E0000F27000035F80000005C260543F80000C3
:1028F00050F8000058F8000069F8000070F8000077
:1029000077F800007CF8000070B58AB015000E0062
:102910000400FFF72BFC010004A805F0C6FC04A985
:1029200007A805F038FD244907A805F0B7FD2100E8
:1029300005F0A7FD214C210005F0B0FD310005F0A8
:10294000A0FD210005F0AAFD290005F09AFD010077
:1029500001A805F020FD07A805F058FC04A805F023
:1029600055FC174C1749200001F03CFF78211E2030
:1029700005F02FFA05F026FF0021200002F038F9BB
:1029800001A9200005F0DFFA0021200001F0A8FED7
:102990000D4907A805F089FC01A907A805F071FDFC
:1029A00001000A4805F0F2FA07A805F02FFC01A87B
:1029B00005F02CFC0AB070BDB6FA000094F70000D8
:1029C0006C0600204058E536BCFA0000C411002017
:1029D00030B50D00140087B0010003A805F0DBFC42
:1029E000234903A805F05AFD290005F04AFD2149B5
:1029F00005F054FD210005F044FD0100684605F096
:102A0000CAFC03A805F002FC1B4C1C49200001F085
:102A1000E9FE2000182101F0D7FF5021142005F015
:102A2000D8F905F0CFFE0021200002F0E1F8694658
:102A3000200005F088FA0021200001F051FEC0219D
:102A40002000490001F0C0FF0D4903A805F02DFC4E
:102A5000694603A805F015FD01000A4805F096FA3D
:102A600003A805F0D3FB684605F0D0FB07B030BDE6
:102A70000AF9000094F700006C0600204058E53683
:102A800010F90000C411002030B587B00122010008
:102A90006846FFF7F5FD114903A805F006FC03A9F8
:102AA000684605F05EFD0024050003A805F0AEFBB6
:102AB000A5420DD10A49684605F029FD01340028D8
:102AC00006D10849684605F022FD444244410234DB
:102AD000684605F09BFB200007B030BD8AFD000072
:102AE00088F800004CF70000F0B504009DB00E001F
:102AF000151C0100022201A8FFF7C2FD21000322DC
:102B000004A8FFF7BDFD2100042207A8FFF7B8FDC8
:102B1000052221000AA8FFF7B3FD7D4913A805F09F
:102B2000C4FB01A913A805F0ACFC7A4905F0B6FC7A
:102B300004A905F0A6FC784905F0B0FC07A905F04A
:102B4000A0FC764905F0AAFC0AA905F09AFC744994
:102B500005F0A4FC04000A22310016A805F0D5FBFC
:102B600016A9200005F08DFC6E4905F097FC0400C5
:102B70000122291C19A805F023FC19A9200005F041
:102B800080FC694D0100280005F000FA19A805F045
:102B90003DFB16A805F03AFB13A805F037FB634F81
:102BA00019A83E1D310005F080FB19A901A805F008
:102BB000A0FC040019A805F029FB002C4BD004A8A8
:102BC000FFF7ECFB002817D05949280005F0E8F979
:102BD000310016A805F069FB564919A805F065FBF8
:102BE00016A819AA04A9FFF78FFE19A805F00EFB75
:102BF00016A805F00BFB35E00AAA07A916A8FFF7EF
:102C0000AFFD04A8FFF7DEFB310019A805F04DFB6E
:102C100016AA04A919A8FFF777FE19A805F0F6FA75
:102C2000454919A805F041FB19A916A805F0C9FCEA
:102C3000040019A805F0EAFA002CD9DBFA204000BC
:102C400005F0C0FDBFF34F8F3C4B3D4ADA60BFF348
:102C50004F8FC046FDE77B7D002B11D139492800FD
:102C600005F09EF90AA805F0D1FA07A805F0CEFAFA
:102C700004A805F0CBFA01A805F0C8FA1DB0F0BD14
:102C800001A90DA8FFF758FC04A913A805F083FBC0
:102C90002D4D13A8290005F001FC07A905F0F1FB53
:102CA0000C9B0600002B2ED0290016A805F0FDFA7B
:102CB0000AA916A805F0E5FB010019A805F06BFBB1
:102CC000012419A9300005F0DCFB010010A805F073
:102CD00062FB19A805F09AFA002C02D016A805F09C
:102CE00095FA13A805F092FA10AA01A90DA8FFF70A
:102CF0006FFE10AA01A90DA8FFF73EFC10A805F071
:102D000085FA0DA875E7114919A805F0CEFAD8E79C
:102D100091F60000AFF60000B7F60000E9F70000FA
:102D2000BDF60000C6F60000C4110020D402002049
:102D3000CCF60000F6F600005BF8000000ED00E0C5
:102D40000400FA05FDF6000094F70000CE0A010029
:102D5000F0B50700002585B02E00194C2C36361929
:102D60003378002B24D0390001A805F014FB154955
:102D700001A805F093FB010020001830401905F070
:102D8000F0FB040001A805F041FA002C10D000234C
:102D90000D49337001A805F088FA390001A805F043
:102DA00070FB0100094805F0F1F801A805F02EFAC2
:102DB000C02330355B009D42CED105B0F0BDC0468A
:102DC0003C03002094F700006FF60000C4110020BF
:102DD00010B590B001000400032201A8FFF750FCD9
:102DE000039B002B02D001A8FFF7B2FF2C2120008B
:102DF00005F0D2FBA368421C210004A805F02CFCBE
:102E0000FFF7B4F901000AA805F04FFA0AA90DA8C6
:102E100005F0C1FA20490DA805F040FB04A905F012
:102E200030FB010007A805F0B6FA0DA805F0EEF991
:102E30000AA805F0EBF9194C1949200001F0D2FC61
:102E400078211E2004F0C5FF05F0BCFC0021200005
:102E500001F0CEFE07A9200005F075F80021200042
:102E600001F03EFC0F490DA805F01FFA07A90DA8B7
:102E700005F007FB01000C4805F088F80DA805F0E7
:102E8000C5F907A805F0C2F904A805F0BFF901A823
:102E900005F0BCF910B010BD94F700006C060020DE
:102EA0004058E53626F90000C411002030B585B041
:102EB0000500FFF7BDFB041E23DB134901A805F045
:102EC000F4F9290001A805F0DCFA104905F0E6FA4A
:102ED00001000F4805F05AF801A805F097F93020D5
:102EE0006043020001000B4B18320C31C018D2189D
:102EF000C918FFF76DFD142005F064FC2000FFF7F2
:102F0000B3FB05B030BDC046BCF90000C9F90000F4
:102F1000C41100203C030020F8B51C222B492C488A
:102F200002F08AFE01222B4B52421A602A4A0025E7
:102F30005A6001221D725A724021284802F002F99B
:102F4000274802F071F9274C2748210040190C3519
:102F500005F0ABF9602DF6D1244F25493A00002049
:102F600005F0E4FF0026234D2100701905F09DF9BE
:102F700028000C308019210005F097F980232036B5
:102F80005B009E42EFD13A001B49002005F0CEFFC6
:102F900000261A4D2100A81905F087F928000C30E9
:102FA0008019210005F081F92800183080192100CE
:102FB00005F07BF9C02330365B009E42E9D13A0030
:102FC0000F49002005F0B2FFF8BDC04600FB00002D
:102FD000F4020020C802002000093D000E0300207A
:102FE000AC020020CE0A0100BC040020000000203A
:102FF000FD20000020050020192100003C030020D6
:103000003D210000FA2370B59B000500984200D2D4
:103010001D00184C1849200004F09CFF0A222900CA
:10302000200005F018F81549200004F0B9FF200031
:1030300003F066FB200003F04BFB2900104802F070
:10304000F1FBE1212000490203F048FA05F084FB7E
:103050000500200003F092FB002805D105F07CFB61
:10306000084B401B9842F4D90749200004F098FF10
:1030700070BDC046C4110020D1FA0000DDFA000086
:10308000E4080020CF070000E1FA000010B5064C6C
:103090000100200001F03CFE200001F045FE43420B
:1030A0005841C0B210BDC046A806002070B504004B
:1030B00005F052FB214A002C04D113682049C31AA1
:1030C0008B421CD910604020FFF7E0FF1D4C237895
:1030D000002815D1002B04D01B4920701B4804F098
:1030E0005FFF6120FFF7D2FF194C002813D123782E
:1030F000002B04D017492070144804F051FF70BD14
:10310000002BEED1144802F061F80028E9D1012328
:1031100012492370E2E72278002AF0D1104D0123F2
:103120001049280002F0BAFA0028E8D0022128004D
:1031300002F0ADFA01230C492370DDE734030020CF
:10314000871300000C03002092F80000C411002037
:103150000D030020CFF800000E030020A8F80000A7
:10316000AC020020A8060020E4F80000F0B505003D
:1031700093B00020FFF79AFF744E33680133336039
:10318000FEF7F4FF0100684605F08FF8694603A8D2
:1031900005F001F96E4903A805F080F907006D4CB0
:1031A0000A22217D06A805F09FF806A9380005F03F
:1031B00068F9694905F072F90700211D09A805F0B1
:1031C00074F809A9380005F05CF9644905F066F95E
:1031D00004000A2231680CA805F0BBF80CA92000F5
:1031E00005F04FF95E4905F059F904005D490FA853
:1031F00005F05BF80FA9200005F043F90100280055
:1032000005F0C9F80FA805F001F80CA804F0FEFFBE
:1032100009A804F0FBFF06A804F0F8FF03A804F0D7
:10322000F5FF684604F0F2FF4F4E3378002B37D09D
:103230004E4C1D2221004E4801F086FF002800D090
:103240007BE0267B637B36021E43A37BE47B1B0271
:1032500048490CA81C4305F028F80A22310009A8A7
:1032600005F053F809A90CA805F00BF9424905F03F
:1032700015F906000A2221000FA805F046F80FA94B
:10328000300005F0FEF80100280005F0D6F80FA880
:1032900004F0BCFF09A804F0B9FF0CA804F0B6FFC5
:1032A000364B1B78002B45D0354C200001F0FEFF3B
:1032B00000283FD0334909A804F0F7FF200002F0AE
:1032C00010F90122011C06A805F07AF806A909A840
:1032D00005F0D7F82C4905F0E1F80600200002F0CF
:1032E000EEF80122011C0CA805F06AF80CA93000C8
:1032F00005F0C7F8254905F0D1F80600200002F0D6
:10330000C9F80A2201000FA804F0FFFF0FA930003E
:1033100005F0B7F80100280005F08FF80FA804F0B9
:1033200075FF0CA804F072FF06A804F06FFF09A84F
:1033300004F06CFF280013B0F0BD0023144A1549B7
:1033400015483370136004F02BFEA9E73803002002
:103350007BF70000D402002094F700007EF7000005
:1033600081F700000C0000200C0300200F03002058
:103370000E03002088F700008FF700000D030020E7
:10338000AC020020C6F70000CAF70000CEF700002C
:103390003403002096F70000C4110020F8B50500A2
:1033A0000F0016000E4C82684168200001F07AF888
:1033B0002B680021D8B205F0DFFC3900200000F0B6
:1033C0007AFF3100200000F076FF06002868012116
:1033D000C0B205F0D1FC200000F0E4FF3000F8BDE1
:1033E0002406002070B504000160C8B2012105F078
:1033F00077FC23680121D8B205F0BEFC122300221D
:1034000063716833A371793B2271E2712272637236
:1034100042212000FFF7C2FF154D06001549280084
:1034200004F098FD21680A22280004F00AFE1249DF
:10343000280004F08FFD0F2E03D81049280004F057
:1034400089FD31001022280004F015FE0C49122ECF
:1034500005D0013EF6B20B49FD2E00D80A492800DE
:1034600004F09EFD812220001100FFF797FF70BD40
:10347000C411002000FC00000BFC00002A0F01001A
:103480001FFC000034FC00006FFC0000F7B5E121D8
:103490006D4C4902200003F021F8FA20C00005F02D
:1034A00091F90121062005F01BFC0021062005F002
:1034B00063FC664E300001F067FC002005F0A2FBC3
:1034C00004F076FCFEF760FEFEF77CFE604920000B
:1034D00004F066FD5F49200004F03CFD5E4F2000D3
:1034E000391D04F05DFD5D49200004F033FD5C49A9
:1034F000200004F055FD5B49200004F051FD5A49BD
:10350000200004F027FDFEF731FE0100200004F04A
:1035100047FD5649200004F01DFD5549200004F0E8
:103520003FFD5449200004F015FD7B7D5249002BDE
:1035300000D15249200004F033FD5149200004F02D
:1035400009FD397D0A22200004F095FD4D49200037
:1035500004F026FD4C4801F039FE002806D1012276
:103560004A4B4B4920001A7004F01AFD494D0123C3
:1035700000223100280002F091F800280AD0012230
:10358000454B022128001A7002F081F843492000BF
:1035900004F006FD05F0E0F8414B186005230193A7
:1035A000404D4149280001F084FA061E07D13F49E9
:1035B000200004F0F5FCFA20800005F003F9019BDF
:1035C000013B0193002B14D1002E14D13849200067
:1035D00004F0E6FC200003F093F8364805F0F2F81A
:1035E000BFF34F8F344B354ADA60BFF34F8FC0467D
:1035F000FDE7002ED4D00921280001F03AF9304926
:10360000280001F067F93421280001F0EBF9C0210E
:103610002800490001F0D8F9280001F0E9F9012259
:103620000E21280001F031FA7B7D002B0BD0042104
:103630002448FFF7D7FE0021280001F041FB224972
:10364000200004F0ADFCF7BDC4110020A806002046
:10365000CCFC0000F3FC0000D402002007FD0000B9
:103660000C00002015FD00003DFD000051FD000094
:103670000400002065FD00009DFC0000B6FC000079
:103680007DFD0000CDFC00000E0300200C03002097
:103690008CFD0000AC0200200D0300209EFD000008
:1036A000340300206C0600204058E536AFFD0000D2
:1036B000D4FD00001027000000ED00E00400FA0532
:1036C00048E80100C802002003FE00008122F8B58E
:1036D00004000F001100FFF761FE022005F072F8F0
:1036E000FF2292212000FFF759FE8722812120002E
:1036F000FFF754FE05F030F80425060005F02CF81D
:10370000801BB8420AD2002212212000FFF746FE99
:10371000284210D1642005F077F8EFE70025FF225A
:1037200092212000FFF73AFE812220001100FFF7CE
:1037300035FE2800F8BD01250540F0E7F0B59FB043
:1037400004000D00161CFFF79FF9002800D02CE1A3
:103750009F4915A804F0A9FD210015A804F091FEC9
:103760009C4904F09BFE07000A22290018A804F0D7
:10377000CCFD18A9380004F084FE974904F08EFEB1
:1037800007000122311C1BA804F01AFE1BA93800F7
:1037900004F077FE0100914804F0F8FB1BA804F048
:1037A00035FD18A804F032FD15A804F02FFD210006
:1037B0006846FEF78BFF210003A8FEF7A5FF059BD7
:1037C00003A9002B00D1694606A804F0E4FD029B82
:1037D000002B03D006A96846FEF710FE06A8FFF7E7
:1037E00065FB2C21200004F0D7FEA368421C2100B9
:1037F00009A804F031FFFEF7B9FC010012A804F09B
:1038000054FD12A90FA804F0C6FD75490FA804F0D5
:1038100045FE09A904F035FE724904F03FFE04009C
:10382000714915A8043104F040FD15A9200004F0E9
:1038300028FE6E4904F032FE04000A22290018A86E
:1038400004F063FD18A9200004F01BFE684904F091
:1038500025FE04000122311C1BA804F0B1FD1BA9A8
:10386000200004F00EFE01000CA804F094FD1BA83B
:1038700004F0CCFC18A804F0C9FC15A804F0C6FCA0
:103880000FA804F0C3FC12A804F0C0FC594C5A491C
:10389000200000F0A7FFC821322004F09AFA04F0BB
:1038A00091FF0021200001F0A3F90CA9200004F0F1
:1038B0004AFB0021200000F013FF50491BA804F030
:1038C000F4FC0CA91BA804F0DCFD0100434804F043
:1038D0005DFB1BA804F09AFC04F03EFF050004F019
:1038E0003BFF474B401B984246D8424F00213800CF
:1038F00001F09EF90028F2D0424915A804F0D5FC49
:10390000380000F0BDFE04003800002C06D000F0A6
:10391000BFFEC1B215A804F0ABFDF1E700F08AFECE
:103920000600380000F09CFE220015A9071C18A80C
:10393000FEF7A6FE2C491BA8043104F0B6FC1BA917
:1039400018A804F0D6FD041E06D015A8FFF79CF8B1
:10395000013844424441E4B21BA804F057FC18A8C3
:1039600004F054FC002C1CD015A83A1C3100FFF7C1
:10397000BBF815A804F04AFC1F491E4800F032FFAE
:103980000CA804F043FC09A804F040FC06A804F0CD
:103990003DFC03A804F03AFC684604F037FC1FB075
:1039A000F0BD15A804F032FC99E7012809D1321CBA
:1039B00029002000FFF798F80F490E4800F012FF89
:1039C000EDE70228EBD12000FFF702FAF4E7C0464A
:1039D00077F9000090F9000099F90000C411002067
:1039E00094F700008CF80000D40200209FF900003A
:1039F000A6F900006C0600204058E536ACF900003E
:103A000057020000CE0A0100F0B5464D8DB0464980
:103A1000280004F0C5FA6846FFF7A8FB434C444968
:103A2000200000F0DFFEC821322004F0D2F904F0BB
:103A3000C9FE0021200001F0DBF86946200004F0F7
:103A400082FA0021200000F04BFE3A4909A804F058
:103A50002CFC694609A804F014FD0100280004F0BC
:103A600095FA09A804F0D2FB04F076FE050004F0F4
:103A700073FE314B401B984246D82C4F0021380032
:103A800001F0D6F80028F2D02C4903A804F00DFC70
:103A9000380000F0F5FD04003800002C06D000F0DE
:103AA000F7FDC1B203A804F0E3FCF1E700F0C2FDAA
:103AB0000600380000F0D4FD220003A9071C06A868
:103AC000FEF7DEFD1E4909A8043104F0EEFB09A94A
:103AD00006A804F00EFD041E06D003A8FEF7D4FFCE
:103AE000013844424441E4B209A804F08FFB06A81F
:103AF00004F08CFB002C10D003A83A1C3100FEF718
:103B0000F3FF03A804F082FB0949084800F06AFEAD
:103B1000684604F07BFB0DB0F0BD03A804F076FB13
:103B2000A5E7C046C411002042F900006C06002041
:103B30004058E5365EF9000057020000CE0A010049
:103B4000D4020020F0B5514D8DB032212800FFF78E
:103B5000BDFD4F4C00282ED1802281212800FFF787
:103B60001DFCC82004F050FE022004F02BFEFA20B9
:103B70008000FFF747FA200000F028FE022004F042
:103B800021FE4449200000F02DFEC0212000490004
:103B900000F01AFFFA21404A890013685B1813608D
:103BA0003E4A9269934204D300223B4B1A60FFF7CE
:103BB0002BFF0DB0F0BD3A493A4804F0F1F9354910
:103BC000200000F00FFE0021200001F079F804F041
:103BD000C3FD050004F0C0FD334B401B984250D894
:103BE0000021200001F024F80028F3D02F4903A879
:103BF00004F05BFB200000F043FD06002000002ED7
:103C000006D000F045FDC1B203A804F031FCF1E795
:103C100000F010FD0190200000F022FD320003A909
:103C2000071C06A8FEF72CFD1C4909A8043104F066
:103C30003CFB09A906A804F05CFC060009A804F0F6
:103C4000E5FA002E16D03A1C019903A8FFF776FD7D
:103C500006A804F0DBFA03A804F0D8FA04F07CFD0F
:103C60000D4B1A68551B281818600C4B9B6998421D
:103C70009FD399E706A804F0C9FA03A804F0C6FA8E
:103C8000A8E70B49074804F08BF9E7E7C8020020D2
:103C90006C0600204058E53630030020D402002096
:103CA00056F50000C411002097080000CE0A01005C
:103CB0007CF50000F0B50600FA209DB08449800034
:103CC00004F087F80A22010001A804F030FB31005B
:103CD00013A804F0EAFA13A916A804F05CFB7D49C6
:103CE00016A804F0DBFB04007B4919A8043104F09A
:103CF000DCFA19A9200004F0C4FB784904F0CEFBDB
:103D000001A904F0BEFB010004A804F044FB19A8BB
:103D100004F07CFA16A804F079FA13A804F076FAF5
:103D20006F4D280000F052FD6E49280000F05AFD4A
:103D3000C0212800490000F047FEC821322004F0CD
:103D400048F804F03FFD0021280000F051FF04A9CD
:103D5000280004F0F8F80021280000F0C1FC6249B6
:103D600019A804F0A2FA04A919A804F08AFB01001A
:103D70005E4804F00BF919A804F048FA0021280065
:103D800000F09EFF04F0E8FC070004F0E5FC584B4F
:103D9000C01B984200D980E00021514800F048FF44
:103DA0000028F2D0534907A804F07FFA4C4C2000B9
:103DB00000F066FC021E07D0200000F069FCC1B2D2
:103DC00007A804F055FBF1E707A90AA8FEF758FC7D
:103DD00041490DA8043104F068FA0DA90AA804F0BD
:103DE00088FB041E2FD0012207A910A8FEF748FC6B
:103DF000414910A804F08BFB041E21D0022207A920
:103E000013A8FEF73DFC310016A804F04EFA16A9DF
:103E100013A804F06EFB041E0CD0032207A919A8F6
:103E2000FEF72EFC01A919A804F063FB040019A8F1
:103E300004F0ECF916A804F0E9F913A804F0E6F987
:103E400010A804F0E3F90DA804F0E0F90AA804F0C2
:103E5000DDF9002C1DD0280000F0B8FC274919A876
:103E600004F023FA07A919A804F00BFB01001F486E
:103E700004F08CF819A804F0C9F907A804F0C6F9F1
:103E800004A804F0C3F901A804F0C0F920001DB093
:103E9000F0BD07A804F0BAF977E7280000F096FC17
:103EA000174919A804F001FA310016A804F0FDF929
:103EB00016A919A804F0E5FA01000C4804F066F808
:103EC00016A804F0A3F919A804F0A0F90024D7E774
:103ED0000F2700002BF70000D402002094F7000009
:103EE0006C0600204058E53633F70000C41100206E
:103EF000C3090000CE0A010046F7000050F7000099
:103F000063F7000070B58AB0FEF730F9FFF7D2FE14
:103F1000294C061E03D0002323700AB070BD2378FD
:103F20002649013301A8237004F0BFF90A22217841
:103F300004A804F0D9F904A901A804F0A2FA2049C0
:103F400004F0ACFA05000A22032107A804F0DDF909
:103F500007A9280004F095FA1A4D0100280004F082
:103F600015F807A804F052F904A804F04FF901A8C5
:103F700004F04CF92378022BCFD90123124A04A86C
:103F8000117826704B401149137004F08EF9FEF73A
:103F9000EDF8010007A804F088F907A904A804F0C7
:103FA00070FA0100280003F0F1FF07A804F02EF9D1
:103FB00004A804F02BF9B0E71C050020EDF900007F
:103FC00008FA0000C4110020200600200AFA0000B0
:103FD000F0B591B0FFF796FF914C9249200003F0A5
:103FE000DFFFFA20C00004F0EDFB04A8FFF7BEF8E5
:103FF0008D4D8E49280000F0F5FBC821322003F0DA
:10400000E8FE04F0DFFB0121062004F0B5FE0021EC
:10401000280000F0EDFD00260700B04208D004A9FA
:10402000280003F090FF3100280000F059FB060043
:104030000021062004F0A0FE002F5AD0002E58D0F8
:104040007B490DA804F031F904A90DA804F019FA70
:104050000100200003F09AFF0DA804F0D7F81E20FD
:1040600004F0B0FB7149280000F0BCFB00212800DF
:1040700000F026FE6F490DA804F017F996210A22D8
:1040800089000AA804F041F90AA90DA804F0F9F979
:10409000694904F003FA0100200003F077FF0AA841
:1040A00004F0B4F80DA804F0B1F804F055FB0023B7
:1040B0000600029304F050FB604B801B5A4D98425F
:1040C00070D80021280000F0B3FD0028F2D05C4930
:1040D00007A804F0EAF8280000F0D2FA0700280048
:1040E000002F2CD000F0D4FAC1B207A804F0C0F918
:1040F000F1E754490AA804F0D8F80A22390007A8C1
:1041000004F003F907A90AA804F0BBF94E4904F02A
:10411000C5F907000A2231000DA804F0F6F80DA930
:10412000380004F0AEF90100200003F02FFF0DA8C5
:1041300004F06CF807A804F069F80AA88DE700F00D
:1041400079FA0390280000F08BFA3A0007A9051CC1
:104150000AA8FEF795FA3D490DA8043104F0A5F828
:104160000DA90AA804F0C5F9071E06D007A8FEF796
:104170008BFC013847424741FFB20DA804F046F8D6
:104180000AA804F043F8002F08D02A1C039907A8B6
:10419000FEF7AAFC04F0E0FA0600029707A804F074
:1041A00035F887E7029B002B03D129491C4803F00F
:1041B000F7FE2849284803F00CFE00270200234B95
:1041C0009E69C31792197B411600BB4204DB05D1DF
:1041D000FA239B009E4201D2FA26B6001F49200016
:1041E00003F0B8FE300007F0CFF900221C4B05F0B9
:1041F0007BFF0B00022102000091200003F0FEFF74
:104200001849200003F0CCFE280000F0E5FA300049
:10421000FEF7F8FE04A803F0F9FF11B0F0BDC046A8
:10422000C411002023FA00006C0600204058E53637
:1042300042FA000072FA000088FA000057020000FB
:10424000CE0A010059FA00006CFA0000D4020020E6
:104250008FFA0000983A000068C5FFFFA5FA000039
:1042600000408F40B1FA000010B5054B5B7D002B7C
:1042700002D0FFF767FC10BDFFF7AAFEFBE7C046C0
:10428000D402002070B506000C008D18AC4207D097
:10429000336821789B683000984720700134F5E737
:1042A00070BD7047704710B50400406801F0B0FE63
:1042B0000023237610BD10B5406801F0CEFE10BD7E
:1042C000F8B5050040680C0001F0C2FE2B68E7B2AB
:1042D000260A9B68012810D139002800FF2798473B
:1042E0002B68BC4304439B683100280098470302B5
:1042F00020003840184380B2F8BD310028009847AC
:10430000FF262B680002344004439B6839002800D4
:104310009847B4432043EEE710B5040004F012FBC5
:10432000200010BD10B54B1C0BD0102909D0EFF3A5
:10433000108472B6102905DD02234376002C00D1CB
:1043400062B610BD0123427E1A43427618224A43C8
:104350000449891816228A569340C2691343C361DF
:10436000ECE7C046200601004B1C17D0102915D0E1
:10437000437E9B0712D4EFF3108272B618234B438F
:104380000749C9180123897D49B28B40C169994306
:10439000C16100D14176002A00D162B67047C046A3
:1043A00020060100437E002B05D09A0704D5837EAA
:1043B000002B00D062B67047DB07FCD5C369024A08
:1043C0009BB2D360F7E7C04600180040037E002B85
:1043D00004D143768376C3610133037670470000CE
:1043E0007FB5036902AE04000D00029172608B423A
:1043F00003D1828AB3889A4226D020000622310057
:10440000103007F043FB606801F019FE7379E17A20
:10441000013B581E8341227B00936068002301F01A
:10442000ABFF33790021013BDBB2022B01D8074AF5
:10443000D15C074B2A009D4200D91A00606801F048
:10444000CFFD606801F0F1FD7FBDC0462DFE00008C
:10445000001BB70070B518260400FFF7B7FF330044
:104460000821207A0D4D4343EB18595604F0B0FC57
:1044700033000821A07A4343EB18595604F0A8FCF6
:104480000821607A4643AD19695604F0A1FC044B3B
:10449000200006CBFFF7A4FF70BDC0462006010038
:1044A0006406002007B5437E00910192002B07D0DF
:1044B0009A070AD5EFF310835A425341837672B6B6
:1044C0000099019AFFF78CFF07BDDB07F8D5C36998
:1044D000014A9BB29360F3E700180040F7B500244F
:1044E0000125194B194A5D711A601C71184B194846
:1044F000083301930360184B184F4360184B194E53
:10450000038109233A003100457504610475837203
:10451000063B0476C472037304F008FD1248134B83
:10452000019A4360124B45750381252331000260D7
:1045300004613A0004758372223B0476C4720373EB
:1045400004F0F4FCF7BDC0466406002000093D00FD
:1045500030FE0000240600209C11002000000020F6
:104560000A080000A542000044060020B411002003
:10457000262400000020704713B56B460268D971ED
:104580000733546819000122A04716BD7047000088
:10459000FA239B0010B583600D4B002108330360A4
:1045A0000C4B04000361012343750B4B4160836195
:1045B0001C23C3611D3B036220330175436281628A
:1045C000C16201634163816303F01EFE200010BDE0
:1045D00094FE0000400D03004406002070B5040066
:1045E0000E001500C3690021D8B204F0C5FBA06914
:1045F000626903682169DB699847A0693100036833
:104600009B689847A069290003689B689847050044
:10461000A06903681B6A9847E0690121C0B204F0F1
:10462000ABFB280070BD7F2310B519400022FFF7B7
:10463000D5FF10BD70B51A210500FFF7F4FF040087
:10464000A86A06F067FF8022044BD20504F00CFE36
:10465000A423002800D1073BE01A70BDDD4ABF410A
:1046600010B51921FFF7DFFF40B206F053FF00221B
:10467000024B06F043F907F00BF810BD0000D03FE5
:1046800010B504001321FFF7CEFFE36AC01A10BD76
:10469000036810B51B6904009847002807D0E36A37
:1046A00000210133E3622000FFF7BDFF10BD0120B0
:1046B0004042FBE710B51E21FFF7B5FF001110BD0A
:1046C00010B51D21FFF7AFFF0011092803DC034BD4
:1046D0008000C05810BD01204042FBE76CFE000086
:1046E00070B504000D1E06D0836B002B03D0402252
:1046F000C021FFF773FF832281212000FFF76EFFA7
:10470000002D0ED1083512212000FFF78CFF284222
:1047100002D104F084F8F6E7082292212000FFF786
:104720005DFF012070BD70B501210400FFF77BFF24
:10473000C043012583070BD012212000FFF773FF30
:1047400008220025104203D092212000FFF746FFE7
:10475000280070BDF7B50D00222114000600FFF7F8
:1047600062FF03190700FF2B01D9FF24241A2B191C
:104770000193019B9D4206D02A7880213000FFF7EB
:104780002DFF0135F5E73A193000D2B2A221FFF72B
:1047900025FF2000FEBD036870B51B690400984723
:1047A000002810D00D212000FFF73DFF002106005A
:1047B0002000FFF738FF050032008D212000FFF7B1
:1047C0000DFF280070BD01204042FBE7812210B59B
:1047D0001100FFF703FF10BD10B580228121FFF704
:1047E000FDFE10BD70B505000800A962C917430B96
:1047F000C90419430B4A0023C00404F097FD0400C8
:10480000020CD2B228008621FFF7E8FE220A280017
:10481000D2B28721FFF7E2FE2800E2B28821FFF73B
:10482000DDFE70BD0048E801F8B50400FFF748FF61
:1048300006002000FFF73EFF262107002000FFF7BB
:10484000F2FE01210500B940300004F00BFC01002C
:10485000FA20800004F006FC08212A008A43D2B224
:10486000102801DD0D43EAB2A6212000FFF7B6FEB5
:10487000F8BD70B505000C00052903DD0C291DDC11
:1048800006291CD1C522B1212800FFF7A7FE0C2262
:10489000B7212800FFF7A2FE062428001E21FFF7FB
:1048A000C2FE0F22240102402243D2B29E212800E0
:1048B000FFF794FE2800FFF7B7FF70BD0C24C3225A
:1048C000B1212800FFF78AFE0A22B7212800FFF74E
:1048D00085FEE2E7F8B50500080006F01BFE0022A1
:1048E000304B06000F00002404F0C8FCA04247D162
:1048F00000222D4B3000390004F0C0FC01340028A8
:104900003ED10022294B3000390004F0B7FC0134BD
:10491000002835D10022264B3000390004F0AEFCCF
:10492000013400282CD10022224B3000390004F041
:10493000A5FC0134002823D100221F4B3000390090
:1049400004F09CFC013400281AD100221B4B3000DB
:10495000390004F093FC0134002811D10022184BD7
:104960003000390004F08AFC0134002808D100220C
:10497000144B3000390004F081FC444244410834B7
:1049800028001D21FFF74FFE0F2224010240224381
:10499000D2B29D212800FFF721FE2800FFF744FF37
:1049A000F8BDC0460078BE400050C4400078CE40FC
:1049B0000050D4408084DE40805CE4408084EE403F
:1049C0008084FE4080840E4170B505000C000A1200
:1049D000D2B2A021FFF702FE2800E2B2A121FFF728
:1049E000FDFD70BD10B5CAB2B921FFF7F7FD10BDCE
:1049F00010B51E210400FFF716FE04220243D2B2B6
:104A00009E212000FFF7EAFD10BD10B504007829B3
:104A10000ED82D390800052104F024FBC2B21F2056
:104A20000240013002438B212000FFF7D7FD10BD6B
:104A30001B22F029F3D81E3108000A21ECE770B5DB
:104A400005000C00112916DD142900DD1424CD21E8
:104A500087222800FFF7C2FD8C21033C2800FFF7C6
:104A6000D4FF8022023C524222432800D2B2892144
:104A7000FFF7B4FD70BD022900DA0224CD218422A3
:104A80002800FFF7ABFD6421E8E710B5002A0DD13F
:104A90000E2907DD0E2170220A43D2B28921FFF7C9
:104AA0009DFD10BDCA43D2171140F4E7FFF7C7FFC1
:104AB000F7E770B504000E001C20012104F010F986
:104AC00000211C2004F058F90121212004F008F9EC
:104AD0000021212004F050F901211E2004F000F9EA
:104AE00001211E2004F048F9C82003F06BFE0021CC
:104AF0001E2004F041F9C82003F064FE01211E20AD
:104B000004F03AF9322003F05DFEE3690121D8B2E6
:104B100004F0E6F8E3690121D8B204F02DF9206A27
:104B2000431C13D0C0B2012104F0DAF8236A00213B
:104B3000D8B204F021F90A2003F044FE236A0121CF
:104B4000D8B204F019F90A2003F03CFEA069002550
:104B50000368DB6A984742212000FFF764FD1228B2
:104B600028D12000FFF738FE31002000FFF73AFE81
:104B70002A008E212000FFF731FD2A008F2120001E
:104B8000FFF72CFD0C212000FFF74DFD032202430F
:104B9000D2B28C212000FFF721FD0422A6212000A3
:104BA000FFF71CFD11212000FFF749FF2000FFF750
:104BB0000DFE0135280070BD002310B51D210363D3
:104BC0000400FFF730FDFE229D2102402000FFF788
:104BD00005FD10BD70B501241D2104630500FFF71C
:104BE00022FD0443E2B228009D21FFF7F7FC70BDCF
:104BF00070B504000D00FFF796FD0023984212D116
:104C00002000FFF7E3FD2000002D0ED0FFF7E2FFAC
:104C100000228D212000FFF7E1FC0022A2212000CC
:104C2000FFF7DCFC0123180070BDFFF7C5FFEFE7BD
:104C300070B50E0012210400FFF7F5FC05002000FE
:104C4000002E28DDFFF7C6FFF2B2A2212000FFF7F9
:104C5000C5FC2A0092212000FFF7C0FC60231D4004
:104C6000402D1BD10023E362236B2221002B00D1B6
:104C700013212000FFF7D7FC102105002000FFF7CB
:104C8000D2FC8D2102002000FFF7A8FC2000FFF7D6
:104C90009DFD280070BDFFF78FFFDAE7012120009E
:104CA000FFF7C1FC00258628F3D02A008D212000C3
:104CB000FFF794FC862281212000FFF78FFCE8E7B4
:104CC00070B504000D000022C021FFF787FC200012
:104CD000002D0CDDFFF77EFFEAB2A2212000FFF7D6
:104CE0007DFC852281212000FFF778FC70BDFFF755
:104CF00063FFF6E710B50248FFF74AFC10BDC04657
:104D00006C06002010B503689C6B0123A04710BD02
:104D10008C2300229B00C154103BC3185A609A6038
:104D2000DA6001238375704710B5036801211B6B9E
:104D3000984710BDF8B505000E0017000024BC42CE
:104D400008D02B68315D1B6828009847002801D0E7
:104D50000134F4E72000F8BDFC30406A704770472A
:104D60008E239B00C15070478D239B00C15070471C
:104D70000300FC335A6A002A03D01B6AC018007E65
:104D8000704701204042FBE770B5060018250C492A
:104D9000006901F03BFB306901F079F92B00082133
:104DA000307D084C4343E318595604F011F80821AC
:104DB000707D45436419615604F00AF870BDC04621
:104DC000A08601002006010070B504000D000069F6
:104DD00001F072F92900206901F018FB206901F047
:104DE00056F970BD10B5006901F066F910BD0000FC
:104DF000F7B50193FA238026002504009B00836009
:104E0000134B760008330F004560290000920360C1
:104E10003200183006F056FE23002000FC33253007
:104E2000DD6132001D6229005D62FF3006F04AFE3E
:104E300088239B00E3185D609D60DD606B461B78F6
:104E4000276123756B461B79A57520006375FEBD30
:104E5000B8FE000070B506001825006901F0B1FA2F
:104E6000306901F014F92B000821307D064C4343D2
:104E7000E318595603F0ACFF0821707D45436419CF
:104E8000615603F0A5FF70BD2006010010B5002299
:104E9000FFF7E0FF10BD0300802210B5FC33DC6893
:104EA0005200944208D05A6881545A680132D2B2F2
:104EB0005A60DA680132DA6010BDF7B50400171ED7
:104EC000019302D100252800FEBD03000022FC331F
:104ED000DA611A625A620069013201F01FF9061E96
:104EE000F0D0230020691833009301F0AAF90100E3
:104EF0000098FFF7D0FF01252069BD4214D001F0D2
:104F00007EF900280FD0206901F0E8F8022120691D
:104F100001F0EEF8206901F094F901000098FFF724
:104F2000BAFF0135E8E70600206901F0CFF8019BE0
:104F3000002B06D0002E06D00321206901F0D8F8FE
:104F4000C1E7002EBFD1013DBDE7002310B5827D32
:104F50009A420CD0882292008218D4688022520093
:104F6000944204D02530FF30FFF795FF012318004D
:104F700010BD0300FC33DA68002A09D09A68805C0F
:104F80009A680132D2B29A60DA68013ADA60704700
:104F900001204042FBE700228C2370B59B00827504
:104FA00004000E00C15C006901F0B8F8002806D1C9
:104FB0000321206901F09CF80225280070BD882398
:104FC0009B00E318DD68002D11D020002530FF3054
:104FD0002569FFF7CEFFC1B2280001F0E1F80028F3
:104FE000EDD10321206901F083F80325E5E7002EC8
:104FF000E3D00321206901F07BF8DEE710B518301B
:10500000FFF7B7FF10BD70B50400006901F0EEF8BE
:10501000002815D0206901F000F9002811D020697E
:1050200001F05CF80321206901F062F88E239B00F7
:10503000E558002D35D10023FC34E361236263621F
:1050400070BD206901F0F3F8002809D0206901F053
:10505000E9F8002804D0206901F0EEF80028DED03D
:10506000206901F0E4F8002821D1206901F0D0F88E
:105070000028E5D0206901F0DFF8002833D088232C
:105080009B00E318DB68FF21002B05D020002530B2
:10509000FF30FFF76EFFC1B2206901F099F8A075EB
:1050A000CEE7236820001B699847A847C3E720691B
:1050B00001F014F82069032101F01AF8206901F0C9
:1050C000BBF80028BCD0882300229B00E3185A605C
:1050D0009A60DA600123A3758D239B00E358934205
:1050E000AED09847ACE72300FC335A6A802320698E
:1050F0005B009A4206D100F0E9FF0321206900F02D
:10510000F7FF9DE701F09DF8010020001830FFF740
:10511000C2FE206900F0E2FFEFE7000010B5024890
:10512000FFF771FF10BDC046A806002010B50C2384
:105130000B2202490248FFF75BFE10BDA4110020BC
:10514000A806002001707047F8B5114E0C0015003C
:1051500040211D223000FFF7D5FD0B273000FFF75F
:10516000FBFDA84208D16519AC420FD03000FFF713
:1051700045FF20700134F7E7013F002F03D00120E5
:1051800003F020FBEAE702204042F8BD0020FCE7E4
:10519000A806002070B50D00084C01782000FFF72C
:1051A000B7FD29002000FFF7D0FE2000FFF7BCFD6F
:1051B0000023984200D0023B180070BDA8060020D2
:1051C00010B58821FFF7E6FF10BD000070B50400A0
:1051D0000E48FFF7D9FD2000FFF7F2FF051E12D0A1
:1051E0000B4C0C49200002F0B5FE0A2232212000AF
:1051F00002F023FF0849200002F0ACFE0A22290039
:10520000200002F01EFF280070BDC046A806002046
:10521000C411002008FF00006AFF000010B50368F9
:10522000C9B21B68984710BD002300224360836009
:10523000C3600123027443748374C374027670479D
:1052400070B504000D00006861210368DB6A9847AF
:1052500029122068FFF7E2FFE9B22068FFF7DEFFBE
:10526000206803685B6B9847002801D0002070BD60
:10527000032003F0A7FA2068022203686121DB6B98
:105280009847206803681B6998470028EED020687B
:1052900003685B699847050020682D0203685B6915
:1052A0009847C0B2284380B2E1E7000010B5044936
:1052B000FFF7C6FF013843425841C0B210BDC04697
:1052C00002020000F0B5FF20082531268A1891421D
:1052D0000FD00B7858402B0047B24400E0B2002FAB
:1052E00001DA7440E0B2013BDBB2002BF4D10131B2
:1052F000EDE7F0BDF0B589B00400FFF7D7FF0190EE
:105300000390002800D1ACE00023206805930693A9
:10531000079303686121DB6A984703212068FFF740
:105320007DFF00212068FFF779FF206803685B6B31
:105330009847051E02D00023019392E0032003F05A
:1053400041FA2068122203686121DB6B984706004E
:10535000206803681B699847071E70D02F002068DB
:10536000EBB2029303685B699847C6B2112D3DD03A
:105370000123D822AB40520213422ED1D822D200B0
:10538000134221D11B22134230D0EBB2022B19D889
:1053900003235B1B05AAD6540321E8B203F05EFE8B
:1053A00004ABC9B25E540135122DD8D1002F5BD1A8
:1053B000059B67746360079BA774A360069BE774F3
:1053C000E3604EE00423E4E7EBB2082B03D80923A3
:1053D0005B1B07AADFE70A23FAE7EBB20E2B03D821
:1053E0000F235B1B06AAD6E71023FAE7022204A9C3
:1053F0002000FFF767FF02908642D4D0277E002F5F
:105400001BD01E49606902F09AFD0A22E9B2606968
:1054100002F02DFE1A49606902F091FD10220299F6
:10542000606902F024FE1749606902F088FD1022CD
:105430003100606902F01FFEB5E7039FB3E7237EEA
:10544000002B00D177E71049606902F078FDF1B2D6
:105450000A22606902F00BFE0C49606902F08CFDC3
:105460000197019809B0F0BD237E002B00D162E7BF
:105470000749606902F080FD5DE7C046B3FF0000A8
:10548000D7FF0000E5FF0000EEFF00003B00010039
:105490004200010010B5437C0400002B08D0FFF748
:1054A00029FF002804D1237C002B01D10023636055
:1054B00001236068637403F059FF80B210BD10B51A
:1054C000837C0400002B08D0FFF714FF002804D1D0
:1054D000237C002B01D10023E3600123E068A37447
:1054E00010BD10B5C37C0400002B08D0FFF702FFED
:1054F000002804D1237C002B01D10023A3600123C9
:10550000A068E37410BD0000F7B504000D0000684A
:10551000612103681700DB6A984729122068FFF7AA
:105520007DFEE9B22068FFF779FE206803685B6BB7
:105530009847002801D00020FEBD032003F042F967
:105540002068032203686121DB6B984720680368A9
:105550001B6998470028EED0206801AD03685B699D
:1055600098472870206803685B69984768702068CE
:1055700003685B6998472A786B7812021343290005
:10558000C6B23B8002222000FFF79CFE05000120EE
:10559000AE42D1D0237E002BCDD00949606902F004
:1055A000CEFC10222900606902F061FD05496069A6
:1055B00002F0C5FC10223100606902F05CFDBAE720
:1055C0008CFF0000E5FF000073B56B46D1219E1DE6
:1055D000320009020400FFF797FF00280CD0257E57
:1055E000002D09D00549606902F0A9FC318810221C
:1055F000606902F026FD280076BDC04678FF0000F5
:10560000F0B585B00E0003A9171215004A700222EA
:1056100004000F70FFF756FE0190206861210368B7
:10562000DB6A984731122068FFF7F8FDFF212068F8
:105630003140FFF7F3FD39002068FFF7EFFDFF2150
:1056400020682940FFF7EAFD2068019903681B687C
:105650009847206803685B6B984743425841C0B243
:1056600005B0F0BD10B50A1E00D001220149FFF7B8
:10567000C7FF10BD0653000010B50A001021FFF748
:10568000BFFF10BD10B50021FFF7F6FF10BD0A00E7
:105690008C2110B5C901FFF7B3FF10BDF8B501604B
:1056A000050016001F00FFF78FFF041E02D1002423
:1056B0002000F8BD002FFBD02800FFF7E3FF041EF9
:1056C000F5D002212800FFF7E2FF31002800FFF7A4
:1056D000C9FFEDE7114B12495A880A405A805A789F
:1056E000D209FCD10F4A5A805A78D209FCD10E4A0D
:1056F0005A605A7852B2002AFBDB80225968920322
:105700000A435A605A7852B2002AFBDBC023074A88
:105710009B0051680B4353607047C046000C00402B
:10572000FFBFFFFF054600000603010000400041E7
:1057300070B5124801F022F8114C002819D0200051
:1057400001F0D2F9002002220E4B0F4D196891434F
:10575000196004212E6931432961BFF34F8F30BF97
:1057600019680A431A60002802D0200001F0C6F927
:1057700070BD200001F000FA0120E4E7C411002010
:105780002812002010E000E000ED00E0F8B50C0069
:10579000050016001F0000F0CFFAA0420AD2FF2C2D
:1057A00007D10021280000F0C9F93100280000F0DD
:1057B0007DF8F8BD1822162562430A4B9B185D57E9
:1057C0006B1CF6D0102DF4D03A003100E0B202F09C
:1057D00039FAFFF77FFF0123AB40034A51690B43BE
:1057E0005361E6E72006010000180040027870B51A
:1057F00004000E00002A03D11300FF21FFF7C6FFAB
:10580000200000F045F9FA2105008900300003F07E
:105810009FFB4119200000F0E9F80621200000F06C
:1058200031F870BD10B50400FFF7E0FF2000FFF76E
:105830007FFF10BD042310B5034A117E0B4313767E
:10584000024B5B68984710BD00400042E40800200E
:1058500010B5024800F004F810BDC046E40800206E
:105860000023037070470000044B10B51B68002B29
:1058700000D098470122024B1A7210BDEC0800209C
:1058800000140040037810B5002B0BD00724064B02
:1058900021401A7F0800A2431100014319779A7A28
:1058A000D209FCD110BDC04600140040014B196064
:1058B0007047C046EC080020037810B5002B0BD0D1
:1058C0003F24064B21409A690800A243110001437E
:1058D00099619A7AD209FCD110BDC04600140040EB
:1058E0000378002B0BD03F20054B08409A690549EF
:1058F00080011140014399619A7AD209FCD1704725
:10590000001400403FF0FFFF0378002B0BD01F2056
:10591000054B08409A69054900031140014399610C
:105920009A7AD209FCD1704700140040FF0FFEFFA5
:1059300070B51600027804000D00002A0AD0190084
:10594000FFF7BAFF31002000FFF7CAFF290020004F
:10595000FFF7DAFF70BD00000378002B0BD01F208B
:10596000054B08409A69054940041140014399617B
:105970009A7AD209FCD1704700140040FFFFC1FFA2
:105980000378002B0BD00F20054B08409A6905497E
:1059900080051140014399619A7AD209FCD1704780
:1059A00000140040FFFF3FFC0378002B09D0054A9C
:1059B000880693699901890901439161937ADB090A
:1059C000FCD170470014004070B51D00037804003E
:1059D0001600002B09D0FFF7BFFF31002000FFF7B2
:1059E000CFFF29002000FFF7DFFF70BD037837B538
:1059F0000500002B1ED0104B994200D21900002345
:105A000068460091019305F005FF040043690269AF
:105A1000C168643B0132DBB2D2B2C9B22800FFF7E1
:105A2000D3FF23686268A168DBB2D2B2C9B2280092
:105A3000FFF77EFF37BDC04680436D38094B0A4AE9
:105A40009A605A7852B2002AFBDB084A5A605A78A8
:105A500052B2002AFBDB064A5A805A78D209FCD19E
:105A60007047C046000C004002040000020511000F
:105A7000044200000378002B05D0034B034A5A80F0
:105A80009A7AD209FCD17047001400400080FFFFD1
:105A900000B58BB0FFF7EEFF01220F4B52421B699E
:105AA00009920022089207929A0E643206929A0195
:105AB000120F013A05929A02D20E0492DA03D20E24
:105AC00003921A059B06920E9B0E01A80292019367
:105AD00006F0CAF80BB000BD001400400221044BD0
:105AE0001A888A431A809A7AD209FCD17047C04634
:105AF000001400400222044B19880A431A809A7A43
:105B0000D209FCD17047C046001400400122044B6A
:105B100019880A431A809A7AD209FCD17047C04684
:105B2000001400400121044B1A888A431A809A7A93
:105B3000D209FCD17047C046001400402023F7B5BD
:105B400000262A4A0F00916905000B439361284BF8
:105B5000284A294C9A82B7420BD1284B3E001A782A
:105B600070231A4205D023881B0702D5012623691A
:105B700001932800FFF762FF2800FFF7AFFF28001E
:105B8000FFF7C4FF63881E4A134063801D4B2380C8
:105B9000A37ADB09FCD1C0211B4A083313608900BA
:105BA00053581B021B0A53500123E2791343072267
:105BB000E371237F93432377A37ADB09FCD1280089
:105BC000FFF798FF2800FFF7ADFF002F0BD1002E45
:105BD00009D0019B002B06D02361A37ADB09FCD1FD
:105BE00001332B70F7BD8423DB03F5E7000400408D
:105BF00000080040CE0600000014004038040040B9
:105C0000FFBFFFFF080A000000E100E010B5054AF1
:105C10000549064800F010F80022054B05491A70A6
:105C20005A5410BD0104000000010100F40C0020D2
:105C3000F00800200204000030B5094D094CAB68A3
:105C40005B035B0F9B001C590460AB6801619BB256
:105C500043606343A4008360C460426130BDC046BA
:105C60000040004100060100F7B580261A4D019161
:105C70006F6803333E439B086E60002B2BD0174E9A
:105C80002E802E7DF107FCD51E000768991BBF08EA
:105C90008F4219D9002E17D0FF2117788C433C432F
:105CA0000F4957780C403F023C439778013E390436
:105CB0000C4F2740D478BFB20F43240601993C43D0
:105CC00010C101910432E0E7074B2B802B7DDB07ED
:105CD000FCD53300D1E7F7BD0040004144A5FFFFEC
:105CE000FF00FFFFFFFF00FF04A5FFFF044B054A75
:105CF0004908D9611A801A7DD207FCD57047C04681
:105D00000040004102A5FFFF70B504000D00160021
:105D1000E36829002000B34205D2FFF7E7FFE368FC
:105D2000ED18F61AF4E7FFF7E1FF70BD10B51000AB
:105D30001A0005F0ABFE10BD2720704770B5304C3F
:105D40003049200000F062FB200000F0A0F90321A0
:105D50000B2003F03DF803210C2003F039F800225A
:105D60006B21200000F0DAF900280BD0012120007F
:105D700000F016FA1B21200000F012FA0321200087
:105D800000F0B6F9642002F01DFD00226B21200016
:105D900000F0C4F9002813D100226B21200000F08C
:105DA000BDF9002828D00121200000F0F9F90B21CD
:105DB000200000F0F5F90321200000F099F91BE024
:105DC0000821200000F0ECF90321200000F090F9F8
:105DD00001226B21200000F0A1F90028DCD0200076
:105DE00000F02FFA0500200000F070F903212000D8
:105DF00000F07EF92B07CFD5200000F05DF970BDD3
:105E0000A4110020A086010010B5024801F05FFE39
:105E100010BDC0460C0D002010B5024801F057FE21
:105E200010BDC046500F002073B51749174800F049
:105E300047F81749174800F043F81749174800F08A
:105E40003FF81749174800F03BF8174C1749200056
:105E500000F036F8164E1749300000F031F80325EF
:105E600001233100019300950D330D22124801F0FA
:105E7000A7FD0023009501931D221A3321000F482E
:105E800001F09EFD73BDC046000800429411002041
:105E9000000C00429C11002000100042A4110020C0
:105EA00000140042AC110020B41100200018004280
:105EB000BC110020001C00420C0D0020500F0020DF
:105EC00000230371016070479446F0B59E1E721E58
:105ED00096416246056892072F6836063A43324378
:105EE0002A60072505AC24780068A40129402143D5
:105EF00042680024022B00D05C031143214341601F
:105F0000F0BD30B5C0250368AD031C6812052A40FA
:105F10002243C0240904A4022140114319600368EC
:105F20005A6814435C6030BD0123026811680B435A
:105F3000136003681A68D207FCD4DA69D207F9D46F
:105F400070470223026811680B4313600268D3692B
:105F50009B07FCD470470268137E9B0702D4037929
:105F6000002BF9D1002303717047002203685A8384
:105F700070470368187E4007C00F70470368187E9B
:105F8000C0097047802302685B42117E0B43137681
:105F900070470368588B8007C00F70470223026860
:105FA000518B0B43538370470368187EC007C00FA3
:105FB00070470368188DC0B2704703681A7ED20715
:105FC000FCD589B21985012303711800704701229D
:105FD00003689A757047012203681A7570470000BC
:105FE00070B5012604684B08334031402568090725
:105FF0005B070B432B43236004685100034802F006
:10600000A7FF0138C0B2207370BDC046006CDC022F
:106010000123026811680B43136003681A68D207F2
:10602000FCD4DA69D207F9D47047022302681168F8
:106030000B4313600268D3699B07FCD47047036865
:10604000DA699207FCD402211A688A431A60704701
:10605000036818684000C00F70470268936A5B0AC3
:106060005B021943916203681A7E5207FCD5986A55
:10607000C0B270470123026811680B4313600368C4
:106080001A68D207FCD4DA69D207F9D47047022320
:10609000026811680B4313600368DA699207FCD445
:1060A00030215A8B8A43110010220A435A83026816
:1060B000D3695B07FCD470470221026813688B43E5
:1060C00013600268D3699B07FCD470478023026881
:1060D000DB02116851680B43536070470368034942
:1060E0001A685A680A405A607047C046FFFFFBFFB3
:1060F000032230B5036811401C68074D5A68090433
:106100002A40E4061143640F5960052C03D102684C
:10611000D3695B07FCD430BDFFFFFCFF70B5056899
:1061200004006B8B9B069B0F022B0DD06B8B00200A
:106130009B069B0F032B32D06B8B9B0704D56B8B7D
:106140009B069B0F012B2AD16B6A49001143DB0A86
:10615000C9B2DB020B436B622368002A13D11A7E9B
:10616000D207FCD55B8B9B069B0F022B04D0490802
:1061700000222000FFF7D2FF2368588B4007C30F8F
:10618000012058400BE0187E8007C00FF4D11A7E22
:10619000D207F8D5C022596892020A435A6070BDEE
:1061A0000368283319700268107EC007C30F508B34
:1061B000002B06D1C007C00F08D1538B9B07F3D526
:1061C00070474007C30F01205840F9E71800F7E770
:1061D000036828331970036800201A7E520704D51B
:1061E000588B01234007C00F584070470368186858
:1061F000C006400F043843425841C0B2704703689C
:10620000588B8006800F023843425841C0B2704715
:106210000368187E4007C00F70470368187EC007E8
:10622000C00F70470368588BC006C00F70470368E3
:10623000187E8007C00F70470368588B0007C00F97
:10624000704703681A68D206520F052A05D11A7ED4
:10625000920702D41A7ED207F9D528331878C0B233
:10626000704700000368214A30B593422FD0204A7E
:1062700093422FD01F4A93422FD01F4A93422FD0D0
:106280001E4A93422FD01E4A93421FD10E23192239
:106290000121032599401B48C024016099082B4027
:1062A000AB40FC359D4089000918A4000859A8435B
:1062B000C0259D402B0003430B518023DB011A4373
:1062C000114B5A805A7852B2002AFBDB30BD0923A9
:1062D0001422DDE70A231522DAE70B231622D7E77B
:1062E0000C231722D4E70D231822D1E7000800421F
:1062F000000C00420010004200140042001800424E
:10630000001C004200E100E0000C0040F8B5040071
:106310000F0016001D00FFF7A5FF2000FFF704FE89
:106320001C21BB000B4071072268090C0B43136052
:10633000842322689375012F1AD11021012E00D0D9
:1063400008390C4B69431868C00002F001FE0722AF
:10635000216802408B895203DB04DB0C13438B81E1
:10636000226803049089DB0C400B400318439081A2
:10637000F8BDC04620000020F7B50600019308AB29
:106380001F780D001400FFF743FE3000FFF76AFF8F
:10639000C022240592031440BA070C2717433C433C
:1063A000C0270722BF022D0433683D4025431D60EE
:1063B000019B316813401A0080239B0213434B60FA
:1063C000F7BD70B504000D001600FFF74BFF20006D
:1063D000FFF750FE1C2221686D000B6893431A00E2
:1063E00010231343FF220B60236815405D62002ECB
:1063F00004D001232268516A0B43536207232268A9
:1064000093752268D3695B07FCD470BDF8B50400AE
:106410000F00FFF727FF2000FFF72CFE1422236850
:1064200079001A600C4B25681E68300002F090FD60
:106430000A490400300002F08BFD7D23FA21584305
:10644000C90002F085FDFF23241AE868053C1C40C2
:1064500098430443EC60F8BD2000002040420F0048
:106460000020704770B50F26CB1D01390200324065
:10647000D5B22C0000093034092A00DD07341C7025
:10648000013B8B42F2D170BD10B50C000B4B18686C
:10649000FFF7E8FF21000A4B08311868FFF7E2FF19
:1064A0002100084B10311868FFF7DCFF2100064B74
:1064B00018311868FFF7D6FF202010BD0CA080000F
:1064C00040A0800044A0800048A0800008B4024B97
:1064D0009C46103808BC60478964000070477047CC
:1064E0003F20704713B56B460268D9710733546873
:1064F00019000122A04716BD70B50A260B7892B08C
:106500006E44023305000B703C220021300005F080
:10651000D9FA394801AC0690384824210790062062
:1065200020776846364AA1742281364A364BA281CA
:10653000FD3AFF3A8018C177684623390630C177A3
:1065400068460730C17702A8C1770720F277032693
:1065500008316944C87703A9CE7710212B366E44E1
:106560003170092621851F3169440E700CA9053E42
:106570000E7033212380022369440B7006360DA967
:106580000E7022493536A1863B216E44307010A82A
:106590006274E27702703D3269446A440B70137092
:1065A00040210022E37023716371A37341336B4474
:1065B000218719705A702B7DC039A370A37263773D
:1065C0000133DBB2A3776A7D0B200D0068441543CD
:1065D000C5773120684403703A23501C6B4418700F
:1065E000412302320A436B441A70210042220848B8
:1065F00000F01AFD12B070BD10010424020605243B
:106600000904000001020000080B0000070500005B
:106610002812002008B4024B9C46103808BC604782
:10662000F9640000F8B5027D0B7904000D00002725
:106630009A420CD10B784E78A12B0AD1212E06D18B
:106640000100072234311C4800F0EEFC013738000D
:10665000F8BD212BFBD1202E23D10100072234319C
:10666000154800F023FC9623626BDB009A421FD191
:106670003B342378DB071BD4FA2002F009FC00210D
:106680000D4800F0D9FD0127232EE0D1EB78AA7840
:106690001B021343094A00210748136000F0CCFD98
:1066A000D5E7222EEFD103008A783B331A70DAE760
:1066B00002F0F8FBE3E7C046281200201800002093
:1066C00008B4024B9C46103808BC604725660000A1
:1066D00010B534300822002105F0F4F910BD000097
:1066E00010B5417D006A013100F018FB034B1B68B7
:1066F00001335A1E9341181810BDC0461C000020DB
:1067000010B5417D006A023100F01EFB10BD10B5CE
:10671000417D006A023100F0E5FA10BD70B50D0050
:10672000417D0400130002312A00006A00F0D2FB10
:10673000002801D10123636070BD000010B5054C35
:1067400023685A1C04D103685B69984703002060E2
:10675000180010BD1C000020074A0300106810B587
:10676000411C03D001235B42136010BD597D186AA0
:10677000013100F05FFBF8E71C00002070B5050058
:1067800001F0EAFFF423FF330024984207D93B3598
:106790002C780A20631E9C41E4B202F013F820001A
:1067A00070BD00207047704770470000FA239B00BF
:1067B00010B58360114B0022C3820300283383612C
:1067C0000F4B04004260C26118005033236108304F
:1067D000631D21622060DA770A4A2F3303CA03C39C
:1067E0008323A362813BE3628033236301F06CFB6C
:1067F0002100103101F03AFB200010BD030200001F
:10680000D0090100C8090100022110B5094B1A681E
:10681000437D5B01D318FF339C7A21439972437DFA
:106820000133DBB25B01D3180122FF33997A0A43AB
:106830009A7210BDE016002010B502490248FFF719
:10684000B5FF10BD28120020C4110020704710B5FC
:10685000040002F077F8200010BD0000F0B5822996
:1068600019D1C3B2294D5A01AA189169284C800147
:106870000C40C02189052143916126490833401805
:106880007021506128685B011A5C8A431100302234
:106890000A431A54F0BD0029FCD1C026C1B21B4CDA
:1068A0004B01E3189A681A4DB6052A4032439A60A4
:1068B000194A800182185A600A00072724680832A2
:1068C0005201115DB9430F000121394311559F69F0
:1068D00010493D4040182E439E6158617020115D63
:1068E0008143080010210143115599680B48A218F3
:1068F000084080214903014399609968890B890305
:106900009960402311790B431371C3E7E01600200F
:10691000FFFFFF8F5412002014140020FF3F00F0EF
:10692000EFF3108303600123436072B6704703687E
:10693000002B02D162B6BFF36F8F704773B5836DC2
:106940000400002B1BD10600A83635786846FFF7F7
:10695000E7FF019BEDB2013B02D33578EDB2FAE7D8
:1069600068460193FFF7E3FF002D01D1002076BDBB
:106970002300A4331868A0342368C01AF7E76846D8
:10698000FFF7CEFF22000025019BF432013B02D32A
:106990001578EDB2FAE768460193FFF7C8FF002DBE
:1069A000E4D02300F0331868EC34E5E710B5436D0C
:1069B0004468DBB25A01A2189168094808330840BC
:1069C000802149030143916091685B01890B890330
:1069D00091602268D318402219790A431A7110BDB8
:1069E000FF3F00F0F7B5436D4268DBB219000400C9
:1069F0000831106849014118C979C90711D55B01EF
:106A0000D21893689B049B0C0CD12000FFF7CEFF9B
:106A100063681A68636DDBB208335B01D3187F22A9
:106A2000DA71F7BDE16D002923D12100A4310B609B
:106A300023000125AC33E56568465360FFF770FF1E
:106A4000260020002100019BA836013BF430F531DF
:106A50005A1C33D0357002785F1ED2B20A700A78A1
:106A6000002A04D120000193FFF7A0FFE8E73B00D4
:106A7000EEE72100F0310B600023E3652300603373
:106A800053606846FFF74CFF0125260020002100D7
:106A9000019BF436013BA830F5315A1C0ED03570FD
:106AA00002785F1ED2B20A700A78002A04D1200050
:106AB0000193FFF77BFFE8E73B00EEE768460193B1
:106AC000FFF735FFA4E737B56B46DC1D00230D004B
:106AD000237001F0F9F9210001F085F92B681818ED
:106AE000286020783EBD00000421034B1A6813780B
:106AF0008B4313707047C046E016002000780028D2
:106B000010D00121084B1B681A898A431A81082278
:106B1000198B0A431A830422198B0A431A83002211
:106B2000024B1A607047C046E0160020D8160020BD
:106B300010B50F4A93699B0B9B0393611368022264
:106B4000FF331A729879823A02439A711A7A92073D
:106B5000FCD57F24074A2140937A0800A3431900FB
:106B6000802301439172917A5B420B43937210BD73
:106B7000E0160020005000410078002805D0034BAB
:106B80001A68012311890B4313817047E016002016
:106B900010B50C0001F098F9210001F057F9002818
:106BA00004D1034A93699B0B9B03936110BDC046BC
:106BB000E0160020F8B50D00832A19D1CBB23B4C6A
:106BC0005A01A21891693A48AD010840C0218905CF
:106BD00001439161374920686D1870210833556170
:106BE0005B011A5C8A43110040220A431A54F8BD23
:106BF000022A55D1304A8B009858002802D00368E9
:106C00005B699847F82001F099FE0400274E2B4B52
:106C10004660036040220021083004F053FF220048
:106C20000023A032A3646565E3642365A365E3657F
:106C30005360D3641372136013654C321372537232
:106C4000FF222B001340590171188868184F083330
:106C50000740C020800538438860306807265B0104
:106C6000195CAD00B1430E000321314319542300D8
:106C7000616D606811404901411860334B60616D7E
:106C800063680A401B6852019B180122FF33997AFE
:106C900020000A439A72FFF789FE074B5C51A6E772
:106CA00011002800FFF7DAFDA1E7C046E01600203A
:106CB000FFFFFF8F541200202C120020380A010021
:106CC00070B505000124064BA200D258002A06D058
:106CD000210028000134FFF76DFF0A2CF3D170BDAD
:106CE000001200200B4BCAB20B488901C91853018E
:106CF000C318596199690832890B8903996103683E
:106D000052019A180223D3715179823B0B4353717C
:106D10007047C04654120020E0160020084B8A003D
:106D2000D05810B5002803D003689B68984710BD61
:106D3000C9B2044B4901591888688004800CF6E7F1
:106D40002C120020E016002010B50C00FFF7E6FF23
:106D500000280CD0064BE4B21B68083464011C19EF
:106D6000802362795B42134363710223E37110BD98
:106D7000E0160020F0B51C002A4B85B01B68070008
:106D80000D000292002B4AD0274B8A00D0580028D1
:106D900008D0036822005B6802999847040020002D
:106DA00005B0F0BD3800FFF7B9FF844204D92900CF
:106DB0003800FFF7B3FF04000121EBB21B4E039331
:106DC0005B010193F21893689B0B9B039360019AFC
:106DD000336802989B18FF335A7A0A435A72144B4D
:106DE000A901C918220004F051FE002CD7D02900B7
:106DF0003800FFF793FF0028D1D14021039B326870
:106E000008335B01D3181879014319710121D97135
:106E1000019BD318FF339A7A0A439A72BFE7012481
:106E20006442BCE7D81600202C120020E016002097
:106E30001414002013B56B46DC1D22000123FFF75C
:106E400099FF012801D1207816BD01204042FBE7BF
:106E500070B5CBB2124A13485C0189018918021936
:106E600051609168104D08330D408021490329433A
:106E7000402591609168890B8903916001685A01EE
:106E80008A1816793543157195796D06FCD55B0125
:106E9000C918CB79DB07FCD500198068C0B270BD7A
:106EA00014140020E0160020FF3F00F070B50D0024
:106EB00000211400FFF7CCFFA04200D920000023DE
:106EC0000349A34203D0CA5CEA540133F9E770BD19
:106ED00014140020F0B51E003A4B85B01B680F005B
:106EE0000192002B35D08023DB019E4231D8002552
:106EF000354B8A01D3180293002E2CD0334B1B68DC
:106F00000393FF233B401C0000930834039B640160
:106F10001C19A379DB0921D02D4B2E49186802F0EA
:106F200017F82D4B1721584302F012F82B4BE2793A
:106F3000920713D4DA5D002A01D10138F7D2012279
:106F4000DA55009B5A01214B9B189A69920B9203C8
:106F50009A6101256D42280005B0F0BD00221F4B4B
:106F60003400DA553F2E09D9009B40245A01174BB3
:106F70009B188022996912060A439A61220001999E
:106F8000029804F083FD009BA1045A010F4B890C69
:106F90009B18029A2D195A619A69361B920B92031B
:106FA0000A439A61009B039A08335B01D3180222BB
:106FB000DA715979823A0A435A71019B1B1901937C
:106FC0009AE7C046D816002054120020E016002090
:106FD0002000002040420F007011010049120020E3
:106FE00070B50D001C000D4BAE01F61811003000FD
:106FF000220004F04BFDEDB209496D014D196E619F
:10700000AB69084A20001340AB61AB69A2049B0B3B
:10701000920C9B031343AB6170BDC0465412002019
:10702000E0160020FF3F00F0F7B5104B01901B78F1
:107030000F001500002B0CD10D4B16001C78002CF6
:1070400009D00C4E0C4834882018641904F01EFD39
:1070500034802800FEBD002EFBD03A1933000021F9
:107060000198FFF7BDFF2418361AF4E7D415002065
:10707000D5160020D6160020D5150020F8B50F0033
:1070800016000024012A26D9100004F0D9FC0500BE
:10709000380005F08FFD03230222013040002870E4
:1070A0006B7096420DD9397800290AD0531CDBB297
:1070B0000137A9549E4203D00232EC54D2B2F0E719
:1070C000320029000548FFF7AFFF441EA041C4B2BB
:1070D000280004F0BFFC2000F8BDC04628120020A4
:1070E000F0B50024012685B0184B0F0069461E70CC
:1070F00005000094FFF7E7FC154B01A90B806A3BE4
:10710000FF3BCB715A330B72009B8C7109334B8060
:107110000E4B4E7108711C703A00092F0FD00D4FA5
:1071200009223E700C4E280000943480FFF77CFF4B
:1071300069462800FFF7C7FC328808493C702800E0
:10714000FFF772FF012005B0F0BDC046D415002046
:1071500009020000D5160020D6160020D515002003
:1071600070B5CE7892B005000C00022E0BD18B7951
:10717000C9792C4809021943FFF7B2FF411E884123
:10718000C0B212B070BD00F09FFE210000F03FFEC3
:10719000002803D0C117081AC00FF2E7012E0ED144
:1071A000E279A37912021A431F49112A13D8D2B2E5
:1071B000002A10D02800FFF737FF0120E1E7032E57
:1071C000DFD1A378002B08D1E279A37912021A4308
:1071D0001649032AEBD90A78ECE7022B08D1E279A9
:1071E000A379120212491A432800FFF747FFC8E7A4
:1071F000012B05D1E279A37912021A430D49F3E775
:10720000032BBED14122010001A804F05BFC00F079
:107210005BFE01A900F00BFEE279A37912021A438A
:1072200001A9E1E7281200207A0A01006A0A010098
:10723000540A01006E0A0100CBB204495B01C9186F
:107240008B699B0B9B038B617047C046E016002047
:1072500037B5050048780C000B2810D801F06EFEF9
:10726000061B0F2B0F404561494C5A5D097801AA56
:10727000002906D1022311802800FFF7B1FE01206A
:107280003EBD00231380284B1B78012B00D11370C7
:1072900002230021F0E78A780023012A03D101AA02
:1072A0001380224BF0E7204A1370214A93699B0B0D
:1072B0009B039361E3E78C78012C06D100211B4BE3
:1072C00001AA1C7011702300D6E70120002CD7D131
:1072D000154B174A187093699B0B9B039361CFE77B
:1072E00089782800FFF724FCC9E72800FFF738FF5A
:1072F000C6E701230F4ACCE70B780020DB06BFD19D
:107300002800FFF7DDFCA2780A4B0B481A60FFF754
:107310007BFACAE70123094ABBE78A78074B1A6060
:10732000C3E70020ACE7C0464812002050120020FE
:10733000E0160020D8160020C4110020DC16002022
:107340003A4BF7B51E780500002E5FD1384C236804
:107350009A8B12070DD5082231009A833000FFF76F
:107360007DFA10222368FF33997A0A439A72314BCF
:107370001E6023689A8B520701D504229A83FF333B
:107380001A7A920603D52022597A0A435A721A7A37
:10739000D20623D569460800274AC0CAC0C0A268E1
:1073A000920B9203A2604022587902435A716023E3
:1073B0000A7828001A422AD1FFF74AFF2368FF33D0
:1073C000002827D08022997952420A439A711A7A6A
:1073D000520603D54022597A0A435A727F26012564
:1073E0002368FF331E722F00236808377F01DB19E3
:1073F000DB79002B07D0114BAA00D05800280DD004
:1074000003681B6898470135082DECD1F7BDFFF7DD
:10741000BFFBD3E720210A4A9171D8E72900094828
:10742000FFF7C2F92368DF19FE71ECE7D5160020DB
:10743000E0160020D8160020141400202C12002082
:10744000FF500041C411002010B50248FFF778FF3B
:1074500010BDC0462812002080235B00038000235B
:10746000436007330372704783000148C0187047B8
:1074700000120020836C402B09D03F22036CC154C2
:10748000036C013313400364836C013383647047DE
:10749000F7B505006846FFF743FA00264022019B36
:1074A000013B02D32E6D961BFAE768460193FFF766
:1074B0003EFAAB6D6846002B4FD1FFF731FA290039
:1074C000019BA831013B5A1C0CD00C785A1EE4B227
:1074D000002C05D168460193FFF729FA2000FEBD74
:1074E0001300F0E7684601930024FFF720FA2A0012
:1074F0002900A0321368A431B4420ED00868984223
:107500000BD92800591CEB1811606033197808302A
:10751000C9B2FFF7AFFF0134E9E709689942DDD14D
:10752000002313600133AB656846FFF7F9F92F00BC
:107530002A000021019BA837013BF532581CC9D015
:10754000397010785E1E002805D011702800019354
:10755000FFF72CFAEBE73300F0E7FFF7E1F929003A
:10756000019BF431013B5A1C06D00C785A1EE4B240
:10757000002CAFD01300F6E7684601930024FFF714
:10758000D6F92A002900EC321368F031B44202D057
:10759000086898421DD8096899429FD1002368461F
:1075A0001360AB65FFF7BCF92F002A000021019B97
:1075B000F437013BF532581C00D18BE73970107855
:1075C0005E1E002811D0117028000193FFF7EEF91C
:1075D000EAE72800591CEB181160AC331978083021
:1075E000C9B2FFF747FF0134CBE73300E3E710B53B
:1075F0000400FFF74DFF206D10BD10B50400FFF72C
:1076000047FF236D002B03D0E36CE418207A10BDF4
:1076100001204042FBE7F7B517000E000400FFF71A
:1076200037FF6846FFF77CF93F2200259446019B0F
:10763000013B5A1C19D0BD4215D2226D002A12D02E
:107640000121226D4942002A0AD06046E26CA2184C
:10765000117AE26C01320240E264226D013A226545
:1076600071550135E7E7013BE3E768460193FFF712
:107670005EF92800FEBD0000014B024A1A60704707
:10768000E0160020005000412023F7B5474A0500CE
:10769000D1690F200B43D361012245490B78134375
:1076A0000B70444B19788143197006211C782143D3
:1076B000197041490C7822430A701A7802401A70F6
:1076C000602219780A431A703C4B3D4A5A805F7811
:1076D000FF09FCD13B4801F039F801233A4C3B4EFD
:1076E0002268300011780B43137080223900520059
:1076F00004F0E8F922689378DB07FCD456621F2671
:10770000334B1B68590B980C9B01314030405B0F89
:10771000B14200D105211F2800D10238072B00D12A
:10772000043B31408901178D01912A4930400F40B7
:10773000019939431185118D0700B1430800384381
:107740001085118D1803244B7F260B4003430C201A
:1077500013850823D17881430B430321D37022681A
:10776000D3788B4301390B43D370226813783340AD
:107770001370042322681678334313702268C124DF
:107780001389A40083431548138103591B021B0A64
:1077900003518023036013781148194301231170AA
:1077A0002B700021FEF79AFEF7BDC0460004004092
:1077B000584400413C44004159440041000C004001
:1077C0000640000049740000E0160020E416002086
:1077D000246080003FF8FFFFFF8FFFFF00E100E023
:1077E000C41100200120704710B50368014A1B6ACC
:1077F000984710BD13040000FC30006A70478723CF
:107800009B00C018C36880204000C01A7047030066
:10781000FC331A6A002A03D0DB69C018007D704768
:1078200001204042FBE710B504000069FEF77CFB35
:1078300022000023FC329361D361136287229200FD
:10784000A4186360A360E36010BD872310B59B009C
:10785000C218D368002BFCD10069FEF77CFB10BD79
:10786000F02001403039484248417047F0231B0165
:107870001940802306209B0099420AD00133FF3330
:107880000130994205D0802302385B00994200D034
:10789000002070470F2001400020012903D0023949
:1078A000481E8141481C70478B23F0B5182685B0CF
:1078B00002919B000400C05C330008214343324D19
:1078C0001700EB18595601F083FA304B0821E05CA1
:1078D00033004343EB18595601F07AFA2C4BE25C23
:1078E0000393022A09D11133E05CFF2805D0082157
:1078F0004643AE19715601F06BFA8C26B600A05DB6
:10790000FF2819D0012101F0EBF91822A35D2149CC
:107910005A43AB56AD18DB0158188D2189006050D1
:107920001D4901225B188E218900635069688A40D5
:107930008F21890062501A600122029B1100206988
:10794000FEF7E4FC39002000FFF790FF3900050046
:107950002000FFF79FFF390006002000FFF780FF9F
:1079600033000090290020690122FEF7ADFA0B4B8D
:107970002069E25C039BE15CFEF7C3FA2069FEF735
:10798000E0FA05B0F0BDC046200601002D0200005F
:107990002F02000018440041144400412E02000050
:1079A000802210B504005200002104F08BF823005F
:1079B0000022FC335A6020009A60DA6010BD00009B
:1079C000F7B51D0008AB1B780400009309AB1B78CA
:1079D0001600019300234360FA239B008360114B40
:1079E0000F00083303601430FFF7DAFF2000213066
:1079F000FF30FFF7D5FF8B236A469B002761E654D3
:107A0000094B1278E554094B2000E2546A46084BB2
:107A10001279E2548C22313BFF3B9200A354103286
:107A2000A354FEBD8C0A01002D0200002E020000AE
:107A30002F020000F7B5EFF31083009301230193A9
:107A400072B680260200FF25019BFC327600013BC6
:107A50005C1C0FD0D4685F1EB44209D05468015535
:107A6000546801342C405460D4680134D460EEE78B
:107A70003B00EDE768460193FEF759FFF7BD13B5EC
:107A8000EFF3108300930123019372B6019B5A1EFA
:107A90000192002B15D00300FC33DA68002A0DD0C8
:107AA0009A68845C9A680132D2B29A60DA68013AC4
:107AB000DA606846FEF73BFF200016BD01246442F1
:107AC000F7E701246846FEF732FF6442F4E710B599
:107AD00004000069FEF75DFA002805D02069FEF772
